{
  "contractName": "CErc20",
  "abi": [
    {
      "constant": true,
      "inputs": [],
      "name": "name",
      "outputs": [
        {
          "name": "",
          "type": "string"
        }
      ],
      "payable": false,
      "stateMutability": "view",
      "type": "function"
    },
    {
      "constant": false,
      "inputs": [
        {
          "name": "spender",
          "type": "address"
        },
        {
          "name": "amount",
          "type": "uint256"
        }
      ],
      "name": "approve",
      "outputs": [
        {
          "name": "",
          "type": "bool"
        }
      ],
      "payable": false,
      "stateMutability": "nonpayable",
      "type": "function"
    },
    {
      "constant": true,
      "inputs": [],
      "name": "reserveFactorMantissa",
      "outputs": [
        {
          "name": "",
          "type": "uint256"
        }
      ],
      "payable": false,
      "stateMutability": "view",
      "type": "function"
    },
    {
      "constant": false,
      "inputs": [
        {
          "name": "account",
          "type": "address"
        }
      ],
      "name": "borrowBalanceCurrent",
      "outputs": [
        {
          "name": "",
          "type": "uint256"
        }
      ],
      "payable": false,
      "stateMutability": "nonpayable",
      "type": "function"
    },
    {
      "constant": true,
      "inputs": [],
      "name": "totalSupply",
      "outputs": [
        {
          "name": "",
          "type": "uint256"
        }
      ],
      "payable": false,
      "stateMutability": "view",
      "type": "function"
    },
    {
      "constant": true,
      "inputs": [],
      "name": "exchangeRateStored",
      "outputs": [
        {
          "name": "",
          "type": "uint256"
        }
      ],
      "payable": false,
      "stateMutability": "view",
      "type": "function"
    },
    {
      "constant": false,
      "inputs": [
        {
          "name": "src",
          "type": "address"
        },
        {
          "name": "dst",
          "type": "address"
        },
        {
          "name": "amount",
          "type": "uint256"
        }
      ],
      "name": "transferFrom",
      "outputs": [
        {
          "name": "",
          "type": "bool"
        }
      ],
      "payable": false,
      "stateMutability": "nonpayable",
      "type": "function"
    },
    {
      "constant": true,
      "inputs": [],
      "name": "pendingAdmin",
      "outputs": [
        {
          "name": "",
          "type": "address"
        }
      ],
      "payable": false,
      "stateMutability": "view",
      "type": "function"
    },
    {
      "constant": true,
      "inputs": [],
      "name": "decimals",
      "outputs": [
        {
          "name": "",
          "type": "uint8"
        }
      ],
      "payable": false,
      "stateMutability": "view",
      "type": "function"
    },
    {
      "constant": false,
      "inputs": [
        {
          "name": "owner",
          "type": "address"
        }
      ],
      "name": "balanceOfUnderlying",
      "outputs": [
        {
          "name": "",
          "type": "uint256"
        }
      ],
      "payable": false,
      "stateMutability": "nonpayable",
      "type": "function"
    },
    {
      "constant": true,
      "inputs": [],
      "name": "getCash",
      "outputs": [
        {
          "name": "",
          "type": "uint256"
        }
      ],
      "payable": false,
      "stateMutability": "view",
      "type": "function"
    },
    {
      "constant": true,
      "inputs": [
        {
          "name": "owner",
          "type": "address"
        }
      ],
      "name": "balanceOfUnderlyingView",
      "outputs": [
        {
          "name": "",
          "type": "uint256"
        }
      ],
      "payable": false,
      "stateMutability": "view",
      "type": "function"
    },
    {
      "constant": false,
      "inputs": [
        {
          "name": "newComptroller",
          "type": "address"
        }
      ],
      "name": "_setComptroller",
      "outputs": [
        {
          "name": "",
          "type": "uint256"
        }
      ],
      "payable": false,
      "stateMutability": "nonpayable",
      "type": "function"
    },
    {
      "constant": true,
      "inputs": [],
      "name": "totalBorrows",
      "outputs": [
        {
          "name": "",
          "type": "uint256"
        }
      ],
      "payable": false,
      "stateMutability": "view",
      "type": "function"
    },
    {
      "constant": false,
      "inputs": [
        {
          "name": "_address",
          "type": "address"
        }
      ],
      "name": "_setRiskControl",
      "outputs": [
        {
          "name": "",
          "type": "uint256"
        }
      ],
      "payable": false,
      "stateMutability": "nonpayable",
      "type": "function"
    },
    {
      "constant": false,
      "inputs": [
        {
          "name": "_receiver",
          "type": "address"
        },
        {
          "name": "_reserve",
          "type": "address"
        },
        {
          "name": "_amount",
          "type": "uint256"
        },
        {
          "name": "_params",
          "type": "bytes"
        }
      ],
      "name": "flashLoan",
      "outputs": [
        {
          "name": "",
          "type": "uint256"
        }
      ],
      "payable": false,
      "stateMutability": "nonpayable",
      "type": "function"
    },
    {
      "constant": false,
      "inputs": [
        {
          "name": "_borrowFee",
          "type": "uint256"
        }
      ],
      "name": "_setBorrowFeeFactorMantissa",
      "outputs": [
        {
          "name": "",
          "type": "uint256"
        }
      ],
      "payable": false,
      "stateMutability": "nonpayable",
      "type": "function"
    },
    {
      "constant": true,
      "inputs": [],
      "name": "comptroller",
      "outputs": [
        {
          "name": "",
          "type": "address"
        }
      ],
      "payable": false,
      "stateMutability": "view",
      "type": "function"
    },
    {
      "constant": false,
      "inputs": [
        {
          "name": "reduceAmount",
          "type": "uint256"
        }
      ],
      "name": "_reduceReserves",
      "outputs": [
        {
          "name": "",
          "type": "uint256"
        }
      ],
      "payable": false,
      "stateMutability": "nonpayable",
      "type": "function"
    },
    {
      "constant": true,
      "inputs": [],
      "name": "accrualBlockNumber",
      "outputs": [
        {
          "name": "",
          "type": "uint256"
        }
      ],
      "payable": false,
      "stateMutability": "view",
      "type": "function"
    },
    {
      "constant": true,
      "inputs": [],
      "name": "underlying",
      "outputs": [
        {
          "name": "",
          "type": "address"
        }
      ],
      "payable": false,
      "stateMutability": "view",
      "type": "function"
    },
    {
      "constant": true,
      "inputs": [
        {
          "name": "owner",
          "type": "address"
        }
      ],
      "name": "balanceOf",
      "outputs": [
        {
          "name": "",
          "type": "uint256"
        }
      ],
      "payable": false,
      "stateMutability": "view",
      "type": "function"
    },
    {
      "constant": false,
      "inputs": [],
      "name": "totalBorrowsCurrent",
      "outputs": [
        {
          "name": "",
          "type": "uint256"
        }
      ],
      "payable": false,
      "stateMutability": "nonpayable",
      "type": "function"
    },
    {
      "constant": true,
      "inputs": [],
      "name": "totalReserves",
      "outputs": [
        {
          "name": "",
          "type": "uint256"
        }
      ],
      "payable": false,
      "stateMutability": "view",
      "type": "function"
    },
    {
      "constant": true,
      "inputs": [],
      "name": "symbol",
      "outputs": [
        {
          "name": "",
          "type": "string"
        }
      ],
      "payable": false,
      "stateMutability": "view",
      "type": "function"
    },
    {
      "constant": true,
      "inputs": [
        {
          "name": "account",
          "type": "address"
        }
      ],
      "name": "borrowBalanceStored",
      "outputs": [
        {
          "name": "",
          "type": "uint256"
        }
      ],
      "payable": false,
      "stateMutability": "view",
      "type": "function"
    },
    {
      "constant": true,
      "inputs": [],
      "name": "redeemFee",
      "outputs": [
        {
          "name": "",
          "type": "uint256"
        }
      ],
      "payable": false,
      "stateMutability": "view",
      "type": "function"
    },
    {
      "constant": false,
      "inputs": [
        {
          "name": "_redeemFee",
          "type": "uint256"
        }
      ],
      "name": "_setRedeemFeeFactorMantissa",
      "outputs": [
        {
          "name": "",
          "type": "uint256"
        }
      ],
      "payable": false,
      "stateMutability": "nonpayable",
      "type": "function"
    },
    {
      "constant": false,
      "inputs": [],
      "name": "accrueInterest",
      "outputs": [
        {
          "name": "",
          "type": "uint256"
        }
      ],
      "payable": false,
      "stateMutability": "nonpayable",
      "type": "function"
    },
    {
      "constant": false,
      "inputs": [
        {
          "name": "dst",
          "type": "address"
        },
        {
          "name": "amount",
          "type": "uint256"
        }
      ],
      "name": "transfer",
      "outputs": [
        {
          "name": "",
          "type": "bool"
        }
      ],
      "payable": false,
      "stateMutability": "nonpayable",
      "type": "function"
    },
    {
      "constant": false,
      "inputs": [
        {
          "name": "_feeManager",
          "type": "address"
        }
      ],
      "name": "_setFeeManager",
      "outputs": [
        {
          "name": "",
          "type": "uint256"
        }
      ],
      "payable": false,
      "stateMutability": "nonpayable",
      "type": "function"
    },
    {
      "constant": true,
      "inputs": [],
      "name": "borrowIndex",
      "outputs": [
        {
          "name": "",
          "type": "uint256"
        }
      ],
      "payable": false,
      "stateMutability": "view",
      "type": "function"
    },
    {
      "constant": true,
      "inputs": [],
      "name": "supplyRatePerBlock",
      "outputs": [
        {
          "name": "",
          "type": "uint256"
        }
      ],
      "payable": false,
      "stateMutability": "view",
      "type": "function"
    },
    {
      "constant": false,
      "inputs": [
        {
          "name": "liquidator",
          "type": "address"
        },
        {
          "name": "borrower",
          "type": "address"
        },
        {
          "name": "seizeTokens",
          "type": "uint256"
        }
      ],
      "name": "seize",
      "outputs": [
        {
          "name": "",
          "type": "uint256"
        }
      ],
      "payable": false,
      "stateMutability": "nonpayable",
      "type": "function"
    },
    {
      "constant": false,
      "inputs": [
        {
          "name": "newPendingAdmin",
          "type": "address"
        }
      ],
      "name": "_setPendingAdmin",
      "outputs": [
        {
          "name": "",
          "type": "uint256"
        }
      ],
      "payable": false,
      "stateMutability": "nonpayable",
      "type": "function"
    },
    {
      "constant": false,
      "inputs": [],
      "name": "exchangeRateCurrent",
      "outputs": [
        {
          "name": "",
          "type": "uint256"
        }
      ],
      "payable": false,
      "stateMutability": "nonpayable",
      "type": "function"
    },
    {
      "constant": true,
      "inputs": [
        {
          "name": "account",
          "type": "address"
        }
      ],
      "name": "getAccountSnapshot",
      "outputs": [
        {
          "name": "",
          "type": "uint256"
        },
        {
          "name": "",
          "type": "uint256"
        },
        {
          "name": "",
          "type": "uint256"
        },
        {
          "name": "",
          "type": "uint256"
        }
      ],
      "payable": false,
      "stateMutability": "view",
      "type": "function"
    },
    {
      "constant": true,
      "inputs": [],
      "name": "feeManager",
      "outputs": [
        {
          "name": "",
          "type": "address"
        }
      ],
      "payable": false,
      "stateMutability": "view",
      "type": "function"
    },
    {
      "constant": true,
      "inputs": [
        {
          "name": "owner",
          "type": "address"
        },
        {
          "name": "spender",
          "type": "address"
        }
      ],
      "name": "allowance",
      "outputs": [
        {
          "name": "",
          "type": "uint256"
        }
      ],
      "payable": false,
      "stateMutability": "view",
      "type": "function"
    },
    {
      "constant": true,
      "inputs": [],
      "name": "borrowFee",
      "outputs": [
        {
          "name": "",
          "type": "uint256"
        }
      ],
      "payable": false,
      "stateMutability": "view",
      "type": "function"
    },
    {
      "constant": false,
      "inputs": [],
      "name": "_acceptAdmin",
      "outputs": [
        {
          "name": "",
          "type": "uint256"
        }
      ],
      "payable": false,
      "stateMutability": "nonpayable",
      "type": "function"
    },
    {
      "constant": false,
      "inputs": [
        {
          "name": "newInterestRateModel",
          "type": "address"
        }
      ],
      "name": "_setInterestRateModel",
      "outputs": [
        {
          "name": "",
          "type": "uint256"
        }
      ],
      "payable": false,
      "stateMutability": "nonpayable",
      "type": "function"
    },
    {
      "constant": true,
      "inputs": [],
      "name": "interestRateModel",
      "outputs": [
        {
          "name": "",
          "type": "address"
        }
      ],
      "payable": false,
      "stateMutability": "view",
      "type": "function"
    },
    {
      "constant": true,
      "inputs": [],
      "name": "admin",
      "outputs": [
        {
          "name": "",
          "type": "address"
        }
      ],
      "payable": false,
      "stateMutability": "view",
      "type": "function"
    },
    {
      "constant": true,
      "inputs": [],
      "name": "borrowRatePerBlock",
      "outputs": [
        {
          "name": "",
          "type": "uint256"
        }
      ],
      "payable": false,
      "stateMutability": "view",
      "type": "function"
    },
    {
      "constant": true,
      "inputs": [],
      "name": "riskControl",
      "outputs": [
        {
          "name": "",
          "type": "address"
        }
      ],
      "payable": false,
      "stateMutability": "view",
      "type": "function"
    },
    {
      "constant": false,
      "inputs": [
        {
          "name": "newReserveFactorMantissa",
          "type": "uint256"
        }
      ],
      "name": "_setReserveFactor",
      "outputs": [
        {
          "name": "",
          "type": "uint256"
        }
      ],
      "payable": false,
      "stateMutability": "nonpayable",
      "type": "function"
    },
    {
      "constant": true,
      "inputs": [],
      "name": "isCToken",
      "outputs": [
        {
          "name": "",
          "type": "bool"
        }
      ],
      "payable": false,
      "stateMutability": "view",
      "type": "function"
    },
    {
      "anonymous": false,
      "inputs": [
        {
          "indexed": false,
          "name": "error",
          "type": "uint256"
        },
        {
          "indexed": false,
          "name": "info",
          "type": "uint256"
        },
        {
          "indexed": false,
          "name": "detail",
          "type": "uint256"
        }
      ],
      "name": "Failure",
      "type": "event"
    },
    {
      "anonymous": false,
      "inputs": [
        {
          "indexed": false,
          "name": "cashPrior",
          "type": "uint256"
        },
        {
          "indexed": false,
          "name": "interestAccumulated",
          "type": "uint256"
        },
        {
          "indexed": false,
          "name": "borrowIndex",
          "type": "uint256"
        },
        {
          "indexed": false,
          "name": "totalBorrows",
          "type": "uint256"
        }
      ],
      "name": "AccrueInterest",
      "type": "event"
    },
    {
      "anonymous": false,
      "inputs": [
        {
          "indexed": false,
          "name": "minter",
          "type": "address"
        },
        {
          "indexed": false,
          "name": "mintAmount",
          "type": "uint256"
        },
        {
          "indexed": false,
          "name": "mintTokens",
          "type": "uint256"
        }
      ],
      "name": "Mint",
      "type": "event"
    },
    {
      "anonymous": false,
      "inputs": [
        {
          "indexed": false,
          "name": "redeemer",
          "type": "address"
        },
        {
          "indexed": false,
          "name": "redeemAmount",
          "type": "uint256"
        },
        {
          "indexed": false,
          "name": "redeemTokens",
          "type": "uint256"
        }
      ],
      "name": "Redeem",
      "type": "event"
    },
    {
      "anonymous": false,
      "inputs": [
        {
          "indexed": false,
          "name": "borrower",
          "type": "address"
        },
        {
          "indexed": false,
          "name": "borrowAmount",
          "type": "uint256"
        },
        {
          "indexed": false,
          "name": "accountBorrows",
          "type": "uint256"
        },
        {
          "indexed": false,
          "name": "totalBorrows",
          "type": "uint256"
        }
      ],
      "name": "Borrow",
      "type": "event"
    },
    {
      "anonymous": false,
      "inputs": [
        {
          "indexed": false,
          "name": "payer",
          "type": "address"
        },
        {
          "indexed": false,
          "name": "borrower",
          "type": "address"
        },
        {
          "indexed": false,
          "name": "repayAmount",
          "type": "uint256"
        },
        {
          "indexed": false,
          "name": "accountBorrows",
          "type": "uint256"
        },
        {
          "indexed": false,
          "name": "totalBorrows",
          "type": "uint256"
        }
      ],
      "name": "RepayBorrow",
      "type": "event"
    },
    {
      "anonymous": false,
      "inputs": [
        {
          "indexed": false,
          "name": "liquidator",
          "type": "address"
        },
        {
          "indexed": false,
          "name": "borrower",
          "type": "address"
        },
        {
          "indexed": false,
          "name": "repayAmount",
          "type": "uint256"
        },
        {
          "indexed": false,
          "name": "cTokenCollateral",
          "type": "address"
        },
        {
          "indexed": false,
          "name": "seizeTokens",
          "type": "uint256"
        }
      ],
      "name": "LiquidateBorrow",
      "type": "event"
    },
    {
      "anonymous": false,
      "inputs": [
        {
          "indexed": false,
          "name": "oldPendingAdmin",
          "type": "address"
        },
        {
          "indexed": false,
          "name": "newPendingAdmin",
          "type": "address"
        }
      ],
      "name": "NewPendingAdmin",
      "type": "event"
    },
    {
      "anonymous": false,
      "inputs": [
        {
          "indexed": false,
          "name": "oldAdmin",
          "type": "address"
        },
        {
          "indexed": false,
          "name": "newAdmin",
          "type": "address"
        }
      ],
      "name": "NewAdmin",
      "type": "event"
    },
    {
      "anonymous": false,
      "inputs": [
        {
          "indexed": false,
          "name": "oldComptroller",
          "type": "address"
        },
        {
          "indexed": false,
          "name": "newComptroller",
          "type": "address"
        }
      ],
      "name": "NewComptroller",
      "type": "event"
    },
    {
      "anonymous": false,
      "inputs": [
        {
          "indexed": false,
          "name": "oldInterestRateModel",
          "type": "address"
        },
        {
          "indexed": false,
          "name": "newInterestRateModel",
          "type": "address"
        }
      ],
      "name": "NewMarketInterestRateModel",
      "type": "event"
    },
    {
      "anonymous": false,
      "inputs": [
        {
          "indexed": false,
          "name": "oldReserveFactorMantissa",
          "type": "uint256"
        },
        {
          "indexed": false,
          "name": "newReserveFactorMantissa",
          "type": "uint256"
        }
      ],
      "name": "NewReserveFactor",
      "type": "event"
    },
    {
      "anonymous": false,
      "inputs": [
        {
          "indexed": false,
          "name": "benefactor",
          "type": "address"
        },
        {
          "indexed": false,
          "name": "addAmount",
          "type": "uint256"
        },
        {
          "indexed": false,
          "name": "newTotalReserves",
          "type": "uint256"
        }
      ],
      "name": "ReservesAdded",
      "type": "event"
    },
    {
      "anonymous": false,
      "inputs": [
        {
          "indexed": false,
          "name": "admin",
          "type": "address"
        },
        {
          "indexed": false,
          "name": "reduceAmount",
          "type": "uint256"
        },
        {
          "indexed": false,
          "name": "newTotalReserves",
          "type": "uint256"
        }
      ],
      "name": "ReservesReduced",
      "type": "event"
    },
    {
      "anonymous": false,
      "inputs": [
        {
          "indexed": true,
          "name": "from",
          "type": "address"
        },
        {
          "indexed": true,
          "name": "to",
          "type": "address"
        },
        {
          "indexed": false,
          "name": "amount",
          "type": "uint256"
        }
      ],
      "name": "Transfer",
      "type": "event"
    },
    {
      "anonymous": false,
      "inputs": [
        {
          "indexed": true,
          "name": "owner",
          "type": "address"
        },
        {
          "indexed": true,
          "name": "spender",
          "type": "address"
        },
        {
          "indexed": false,
          "name": "amount",
          "type": "uint256"
        }
      ],
      "name": "Approval",
      "type": "event"
    },
    {
      "anonymous": false,
      "inputs": [
        {
          "indexed": true,
          "name": "_target",
          "type": "address"
        },
        {
          "indexed": true,
          "name": "_reserve",
          "type": "address"
        },
        {
          "indexed": true,
          "name": "_cToken",
          "type": "address"
        },
        {
          "indexed": false,
          "name": "_amount",
          "type": "uint256"
        },
        {
          "indexed": false,
          "name": "_totalFee",
          "type": "uint256"
        },
        {
          "indexed": false,
          "name": "_timestamp",
          "type": "uint256"
        }
      ],
      "name": "FlashLoan",
      "type": "event"
    },
    {
      "constant": false,
      "inputs": [
        {
          "name": "underlying_",
          "type": "address"
        },
        {
          "name": "comptroller_",
          "type": "address"
        },
        {
          "name": "interestRateModel_",
          "type": "address"
        },
        {
          "name": "initialExchangeRateMantissa_",
          "type": "uint256"
        },
        {
          "name": "name_",
          "type": "string"
        },
        {
          "name": "symbol_",
          "type": "string"
        },
        {
          "name": "decimals_",
          "type": "uint8"
        }
      ],
      "name": "initialize",
      "outputs": [],
      "payable": false,
      "stateMutability": "nonpayable",
      "type": "function"
    },
    {
      "constant": false,
      "inputs": [
        {
          "name": "comptroller_",
          "type": "address"
        },
        {
          "name": "interestRateModel_",
          "type": "address"
        },
        {
          "name": "initialExchangeRateMantissa_",
          "type": "uint256"
        },
        {
          "name": "name_",
          "type": "string"
        },
        {
          "name": "symbol_",
          "type": "string"
        },
        {
          "name": "decimals_",
          "type": "uint8"
        }
      ],
      "name": "initialize",
      "outputs": [],
      "payable": false,
      "stateMutability": "nonpayable",
      "type": "function"
    },
    {
      "constant": false,
      "inputs": [
        {
          "name": "mintAmount",
          "type": "uint256"
        }
      ],
      "name": "mint",
      "outputs": [
        {
          "name": "",
          "type": "uint256"
        }
      ],
      "payable": false,
      "stateMutability": "nonpayable",
      "type": "function"
    },
    {
      "constant": false,
      "inputs": [
        {
          "name": "redeemTokens",
          "type": "uint256"
        }
      ],
      "name": "redeem",
      "outputs": [
        {
          "name": "",
          "type": "uint256"
        }
      ],
      "payable": false,
      "stateMutability": "nonpayable",
      "type": "function"
    },
    {
      "constant": false,
      "inputs": [
        {
          "name": "redeemAmount",
          "type": "uint256"
        }
      ],
      "name": "redeemUnderlying",
      "outputs": [
        {
          "name": "",
          "type": "uint256"
        }
      ],
      "payable": false,
      "stateMutability": "nonpayable",
      "type": "function"
    },
    {
      "constant": false,
      "inputs": [
        {
          "name": "borrowAmount",
          "type": "uint256"
        }
      ],
      "name": "borrow",
      "outputs": [
        {
          "name": "",
          "type": "uint256"
        }
      ],
      "payable": false,
      "stateMutability": "nonpayable",
      "type": "function"
    },
    {
      "constant": false,
      "inputs": [
        {
          "name": "repayAmount",
          "type": "uint256"
        }
      ],
      "name": "repayBorrow",
      "outputs": [
        {
          "name": "",
          "type": "uint256"
        }
      ],
      "payable": false,
      "stateMutability": "nonpayable",
      "type": "function"
    },
    {
      "constant": false,
      "inputs": [
        {
          "name": "borrower",
          "type": "address"
        },
        {
          "name": "repayAmount",
          "type": "uint256"
        }
      ],
      "name": "repayBorrowBehalf",
      "outputs": [
        {
          "name": "",
          "type": "uint256"
        }
      ],
      "payable": false,
      "stateMutability": "nonpayable",
      "type": "function"
    },
    {
      "constant": false,
      "inputs": [
        {
          "name": "borrower",
          "type": "address"
        },
        {
          "name": "repayAmount",
          "type": "uint256"
        },
        {
          "name": "cTokenCollateral",
          "type": "address"
        }
      ],
      "name": "liquidateBorrow",
      "outputs": [
        {
          "name": "",
          "type": "uint256"
        }
      ],
      "payable": false,
      "stateMutability": "nonpayable",
      "type": "function"
    },
    {
      "constant": false,
      "inputs": [
        {
          "name": "addAmount",
          "type": "uint256"
        }
      ],
      "name": "_addReserves",
      "outputs": [
        {
          "name": "",
          "type": "uint256"
        }
      ],
      "payable": false,
      "stateMutability": "nonpayable",
      "type": "function"
    }
  ],
  "bytecode": "0x60806040526000600655600060075534801561001a57600080fd5b50615c24806200002b6000396000f3fe608060405234801561001057600080fd5b506004361061038e5760003560e01c806395d89b41116101de578063c37f68e21161010f578063f2b3abbd116100ad578063f8f9da281161007c578063f8f9da2814610cab578063f965a54214610cb3578063fca7820b14610cbb578063fe9c44ae14610cd85761038e565b8063f2b3abbd14610c3f578063f3fdb15a14610c65578063f5e3c46214610c6d578063f851a44014610ca35761038e565b8063db006a75116100e9578063db006a7514610be4578063dd62ed3e14610c01578063e626648a14610c2f578063e9c714f214610c375761038e565b8063c37f68e214610b73578063c5ebeaec14610bbf578063d0fb020314610bdc5761038e565b8063a9059cbb1161017c578063ae9d70b011610156578063ae9d70b014610b07578063b2a02ff114610b0f578063b71d1a0c14610b45578063bd6d894d14610b6b5761038e565b8063a9059cbb14610aad578063a9b768e814610ad9578063aa5af0fd14610aff5761038e565b806399d8c1b4116101b857806399d8c1b41461091d578063a0712d6814610a6b578063a50c40ca14610a88578063a6afed9514610aa55761038e565b806395d89b41146108e757806395dd9193146108ef578063965fa21e146109155761038e565b80633e941010116102c35780635fe3b5671161026157806370a082311161023057806370a082311461089457806373acee98146108ba578063852a12e3146108c25780638f840ddd146108df5761038e565b80635fe3b5671461085f578063601a0bf1146108675780636c540baf146108845780636f307dc31461088c5761038e565b806347bd37181161029d57806347bd3718146107505780635782a6f2146107585780635cffe9de1461077e5780635e9ee52f146108425761038e565b80633e941010146106e7578063439d3ee7146107045780634576b5db1461072a5761038e565b80631a31d46511610330578063267822471161030a5780632678224714610677578063313ce5671461069b5780633af9e669146106b95780633b1d21a2146106df5761038e565b80631a31d465146104bd57806323b872dd146106155780632608f8181461064b5761038e565b8063173b99041161036c578063173b99041461047f57806317bfdfbc1461048757806318160ddd146104ad578063182df0f5146104b55761038e565b806306fdde0314610393578063095ea7b3146104105780630e75270214610450575b600080fd5b61039b610ce0565b6040805160208082528351818301528351919283929083019185019080838360005b838110156103d55781810151838201526020016103bd565b50505050905090810190601f1680156104025780820380516001836020036101000a031916815260200191505b509250505060405180910390f35b61043c6004803603604081101561042657600080fd5b506001600160a01b038135169060200135610d6d565b604080519115158252519081900360200190f35b61046d6004803603602081101561046657600080fd5b5035610dda565b60408051918252519081900360200190f35b61046d610df0565b61046d6004803603602081101561049d57600080fd5b50356001600160a01b0316610df6565b61046d610ec6565b61046d610ecc565b610613600480360360e08110156104d357600080fd5b6001600160a01b03823581169260208101358216926040820135909216916060820135919081019060a081016080820135600160201b81111561051557600080fd5b82018360208201111561052757600080fd5b803590602001918460018302840111600160201b8311171561054857600080fd5b91908080601f0160208091040260200160405190810160405280939291908181526020018383808284376000920191909152509295949360208101935035915050600160201b81111561059a57600080fd5b8201836020820111156105ac57600080fd5b803590602001918460018302840111600160201b831117156105cd57600080fd5b91908080601f0160208091040260200160405190810160405280939291908181526020018383808284376000920191909152509295505050903560ff169150610f2f9050565b005b61043c6004803603606081101561062b57600080fd5b506001600160a01b03813581169160208101359091169060400135610fce565b61046d6004803603604081101561066157600080fd5b506001600160a01b038135169060200135611050565b61067f611066565b604080516001600160a01b039092168252519081900360200190f35b6106a3611075565b6040805160ff9092168252519081900360200190f35b61046d600480360360208110156106cf57600080fd5b50356001600160a01b031661107e565b61046d611134565b61046d600480360360208110156106fd57600080fd5b5035611143565b61046d6004803603602081101561071a57600080fd5b50356001600160a01b031661114e565b61046d6004803603602081101561074057600080fd5b50356001600160a01b031661116b565b61046d6112bb565b61046d6004803603602081101561076e57600080fd5b50356001600160a01b03166112c1565b61046d6004803603608081101561079457600080fd5b6001600160a01b03823581169260208101359091169160408201359190810190608081016060820135600160201b8111156107ce57600080fd5b8201836020820111156107e057600080fd5b803590602001918460018302840111600160201b8311171561080157600080fd5b91908080601f016020809104026020016040519081016040528093929190818152602001838380828437600092019190915250929550611333945050505050565b61046d6004803603602081101561085857600080fd5b50356115fc565b61067f6116aa565b61046d6004803603602081101561087d57600080fd5b50356116b9565b61046d611764565b61067f61176a565b61046d600480360360208110156108aa57600080fd5b50356001600160a01b0316611779565b61046d611794565b61046d600480360360208110156108d857600080fd5b503561185a565b61046d611865565b61039b61186b565b61046d6004803603602081101561090557600080fd5b50356001600160a01b03166118c3565b61046d611920565b610613600480360360c081101561093357600080fd5b6001600160a01b03823581169260208101359091169160408201359190810190608081016060820135600160201b81111561096d57600080fd5b82018360208201111561097f57600080fd5b803590602001918460018302840111600160201b831117156109a057600080fd5b91908080601f0160208091040260200160405190810160405280939291908181526020018383808284376000920191909152509295949360208101935035915050600160201b8111156109f257600080fd5b820183602082011115610a0457600080fd5b803590602001918460018302840111600160201b83111715610a2557600080fd5b91908080601f0160208091040260200160405190810160405280939291908181526020018383808284376000920191909152509295505050903560ff1691506119269050565b61046d60048036036020811015610a8157600080fd5b5035611b12565b61046d60048036036020811015610a9e57600080fd5b5035611b1e565b61046d611bcc565b61043c60048036036040811015610ac357600080fd5b506001600160a01b038135169060200135611f24565b61046d60048036036020811015610aef57600080fd5b50356001600160a01b0316611fa5565b61046d612015565b61046d61201b565b61046d60048036036060811015610b2557600080fd5b506001600160a01b038135811691602081013590911690604001356120ba565b61046d60048036036020811015610b5b57600080fd5b50356001600160a01b031661213b565b61046d6121c2565b610b9960048036036020811015610b8957600080fd5b50356001600160a01b031661228e565b604080519485526020850193909352838301919091526060830152519081900360800190f35b61046d60048036036020811015610bd557600080fd5b5035612323565b61067f61232e565b61046d60048036036020811015610bfa57600080fd5b503561233d565b61046d60048036036040811015610c1757600080fd5b506001600160a01b0381358116916020013516612348565b61046d612373565b61046d612379565b61046d60048036036020811015610c5557600080fd5b50356001600160a01b0316612468565b61067f6124a2565b61046d60048036036060811015610c8357600080fd5b506001600160a01b038135811691602081013591604090910135166124b1565b61067f6124c9565b61046d6124d8565b61067f61253c565b61046d60048036036020811015610cd157600080fd5b5035612550565b61043c6125d8565b60018054604080516020600284861615610100026000190190941693909304601f81018490048402820184019092528181529291830182828015610d655780601f10610d3a57610100808354040283529160200191610d65565b820191906000526020600020905b815481529060010190602001808311610d4857829003601f168201915b505050505081565b3360008181526013602090815260408083206001600160a01b03871680855290835281842086905581518681529151939493909284927f8c5be1e5ebec7d5bd14f71427d1e84f3dd0314c0f7b2291e5b200ac8c7c3b925929081900390910190a360019150505b92915050565b600080610de6836125dd565b509150505b919050565b600c5481565b60008054600160a01b900460ff16610e42576040805162461bcd60e51b815260206004820152600a6024820152691c994b595b9d195c995960b21b604482015290519081900360640190fd5b6000805460ff60a01b19168155610e57611bcc565b14610ea2576040805162461bcd60e51b81526020600482015260166024820152751858d8dc9d59481a5b9d195c995cdd0819985a5b195960521b604482015290519081900360640190fd5b610eab826118c3565b90505b6000805460ff60a01b1916600160a01b179055919050565b60115481565b6000806000610ed9612696565b90925090506000826003811115610eec57fe5b14610f285760405162461bcd60e51b8152600401808060200182810382526035815260200180615b3b6035913960400191505060405180910390fd5b9150505b90565b610f3d868686868686611926565b600080546001600160a01b0319166001600160a01b038981169190911791829055604080516318160ddd60e01b8152905192909116916318160ddd91600480820192602092909190829003018186803b158015610f9957600080fd5b505afa158015610fad573d6000803e3d6000fd5b505050506040513d6020811015610fc357600080fd5b505050505050505050565b60008054600160a01b900460ff1661101a576040805162461bcd60e51b815260206004820152600a6024820152691c994b595b9d195c995960b21b604482015290519081900360640190fd5b6000805460ff60a01b1916815561103333868686612745565b1490506000805460ff60a01b1916600160a01b1790559392505050565b60008061105d8484612a53565b50949350505050565b6008546001600160a01b031681565b60035460ff1681565b6000611088615794565b604051806020016040528061109b6121c2565b90526001600160a01b0384166000908152601260205260408120549192509081906110c7908490612b0e565b909250905060008260038111156110da57fe5b1461112c576040805162461bcd60e51b815260206004820152601f60248201527f62616c616e636520636f756c64206e6f742062652063616c63756c6174656400604482015290519081900360640190fd5b949350505050565b600061113e612b62565b905090565b6000610dd482612be1565b6000611158615794565b604051806020016040528061109b610ecc565b6004546000906001600160a01b031633146111935761118c6001603f612c85565b9050610deb565b60095460408051623f1ee960e11b815290516001600160a01b0392831692851691627e3dd2916004808301926020929190829003018186803b1580156111d857600080fd5b505afa1580156111ec573d6000803e3d6000fd5b505050506040513d602081101561120257600080fd5b5051611255576040805162461bcd60e51b815260206004820152601c60248201527f6d61726b6572206d6574686f642072657475726e65642066616c736500000000604482015290519081900360640190fd5b600980546001600160a01b0319166001600160a01b03858116918217909255604080519284168352602083019190915280517f7ac369dbd14fa5ea3f473ed67cc9d598964a77501540ba6751eb0b3decf5870d9281900390910190a160005b9392505050565b600f5481565b6004546000906001600160a01b0316331461130c576040805162461bcd60e51b815260206004820152600660248201526510b0b236b4b760d11b604482015290519081900360640190fd5b60038054610100600160a81b0319166101006001600160a01b038516021790556000610dd4565b60008054600160a01b900460ff1661137f576040805162461bcd60e51b815260206004820152600a6024820152691c994b595b9d195c995960b21b604482015290519081900360640190fd5b6000805460ff60a01b19168155611394612b62565b9050838110156113d55760405162461bcd60e51b81526004018080602001828103825260318152602001806159116031913960400191505060405180910390fd5b60006113ed6113e586600a612ceb565b612710612d2d565b90506000811161142e5760405162461bcd60e51b8152600401808060200182810382526032815260200180615a856032913960400191505060405180910390fd5b868061143a8188612d60565b60405163405b019d60e01b81526001600160a01b03898116600483019081523060248401819052604484018b90526064840187905260a0608485019081528a5160a48601528a519387169463405b019d948e948e938b938f9360c490910190602085019080838360005b838110156114bc5781810151838201526020016114a4565b50505050905090810190601f1680156114e95780820380516001836020036101000a031916815260200191505b509650505050505050600060405180830381600087803b15801561150c57600080fd5b505af1158015611520573d6000803e3d6000fd5b50505050600061152e612b62565b905061153a8585612dd1565b8110156115785760405162461bcd60e51b81526004018080602001828103825260328152602001806159b76032913960400191505060405180910390fd5b61158460105485612dd1565b6010556040805189815260208101869052428183015290516001600160a01b03808c16923092918e16917fc58f35ca649f2ebaf8f1189e10cb3c07d7255c417018d4002ad6dceb86d27e749181900360600190a46000955050505050506000805460ff60a01b1916600160a01b179055949350505050565b6004546000906001600160a01b03163314611647576040805162461bcd60e51b815260206004820152600660248201526510b0b236b4b760d11b604482015290519081900360640190fd5b60008211801561165d5750662386f26fc1000082105b6116a1576040805162461bcd60e51b815260206004820152601060248201526f6265796f6e64207468652073636f706560801b604482015290519081900360640190fd5b50600755600090565b6009546001600160a01b031681565b60008054600160a01b900460ff16611705576040805162461bcd60e51b815260206004820152600a6024820152691c994b595b9d195c995960b21b604482015290519081900360640190fd5b6000805460ff60a01b1916815561171a611bcc565b905080156117405761173881601181111561173157fe5b6030612c85565b915050610eae565b61174983612e07565b9150506000805460ff60a01b1916600160a01b179055919050565b600d5481565b6000546001600160a01b031681565b6001600160a01b031660009081526012602052604090205490565b60008054600160a01b900460ff166117e0576040805162461bcd60e51b815260206004820152600a6024820152691c994b595b9d195c995960b21b604482015290519081900360640190fd5b6000805460ff60a01b191681556117f5611bcc565b14611840576040805162461bcd60e51b81526020600482015260166024820152751858d8dc9d59481a5b9d195c995cdd0819985a5b195960521b604482015290519081900360640190fd5b50600f546000805460ff60a01b1916600160a01b17905590565b6000610dd482612f2b565b60105481565b6002805460408051602060018416156101000260001901909316849004601f81018490048402820184019092528181529291830182828015610d655780601f10610d3a57610100808354040283529160200191610d65565b60008060006118d184612fb6565b909250905060008260038111156118e457fe5b146112b45760405162461bcd60e51b8152600401808060200182810382526037815260200180615a146037913960400191505060405180910390fd5b60065481565b6004546001600160a01b0316331461196f5760405162461bcd60e51b81526004018080602001828103825260248152602001806158ed6024913960400191505060405180910390fd5b600d5415801561197f5750600e54155b6119ba5760405162461bcd60e51b81526004018080602001828103825260238152602001806159426023913960400191505060405180910390fd5b600b849055836119fb5760405162461bcd60e51b81526004018080602001828103825260308152602001806159656030913960400191505060405180910390fd5b6000611a068761116b565b90508015611a5b576040805162461bcd60e51b815260206004820152601a60248201527f73657474696e6720636f6d7074726f6c6c6572206661696c6564000000000000604482015290519081900360640190fd5b611a6361306a565b600d55670de0b6b3a7640000600e55611a7b8661306e565b90508015611aba5760405162461bcd60e51b81526004018080602001828103825260228152602001806159956022913960400191505060405180910390fd5b8351611acd9060019060208701906157a7565b508251611ae19060029060208601906157a7565b50506003805460ff90921660ff1990921691909117905550506000805460ff60a01b1916600160a01b179055505050565b600080610de6836131de565b6004546000906001600160a01b03163314611b69576040805162461bcd60e51b815260206004820152600660248201526510b0b236b4b760d11b604482015290519081900360640190fd5b600082118015611b7f5750662386f26fc1000082105b611bc3576040805162461bcd60e51b815260206004820152601060248201526f6265796f6e64207468652073636f706560801b604482015290519081900360640190fd5b50600655600090565b600080611bd761306a565b600d5490915080821415611bf057600092505050610f2c565b6000611bfa612b62565b600f54601054600e54600a54604080516315f2405360e01b815260048101879052602481018690526044810185905290519596509394929391926000926001600160a01b03909216916315f24053916064808301926020929190829003018186803b158015611c6857600080fd5b505afa158015611c7c573d6000803e3d6000fd5b505050506040513d6020811015611c9257600080fd5b5051905065048c27395000811115611cf1576040805162461bcd60e51b815260206004820152601c60248201527f626f72726f772072617465206973206162737572646c79206869676800000000604482015290519081900360640190fd5b600080611cfe8989613349565b90925090506000826003811115611d1157fe5b14611d63576040805162461bcd60e51b815260206004820152601f60248201527f636f756c64206e6f742063616c63756c61746520626c6f636b2064656c746100604482015290519081900360640190fd5b611d6b615794565b600080600080611d8960405180602001604052808a8152508761336c565b90975094506000876003811115611d9c57fe5b14611dce57611db960096006896003811115611db457fe5b6133d4565b9e505050505050505050505050505050610f2c565b611dd8858c612b0e565b90975093506000876003811115611deb57fe5b14611e0357611db960096001896003811115611db457fe5b611e0d848c61343a565b90975092506000876003811115611e2057fe5b14611e3857611db960096004896003811115611db457fe5b611e536040518060200160405280600c54815250858c613460565b90975091506000876003811115611e6657fe5b14611e7e57611db960096005896003811115611db457fe5b611e89858a8b613460565b90975090506000876003811115611e9c57fe5b14611eb457611db960096003896003811115611db457fe5b600d8e9055600e819055600f8390556010829055604080518d8152602081018690528082018390526060810185905290517f4dec04e750ca11537cabcd8a9eab06494de08da3735bc8871cd41250e190bc049181900360800190a160009e50505050505050505050505050505090565b60008054600160a01b900460ff16611f70576040805162461bcd60e51b815260206004820152600a6024820152691c994b595b9d195c995960b21b604482015290519081900360640190fd5b6000805460ff60a01b19168155611f8933338686612745565b1490506000805460ff60a01b1916600160a01b17905592915050565b6004546000906001600160a01b03163314611ff0576040805162461bcd60e51b815260206004820152600660248201526510b0b236b4b760d11b604482015290519081900360640190fd5b50600580546001600160a01b0383166001600160a01b03199091161790556000919050565b600e5481565b600a546000906001600160a01b031663b8168816612037612b62565b600f54601054600c546040518563ffffffff1660e01b81526004018085815260200184815260200183815260200182815260200194505050505060206040518083038186803b15801561208957600080fd5b505afa15801561209d573d6000803e3d6000fd5b505050506040513d60208110156120b357600080fd5b5051905090565b60008054600160a01b900460ff16612106576040805162461bcd60e51b815260206004820152600a6024820152691c994b595b9d195c995960b21b604482015290519081900360640190fd5b6000805460ff60a01b1916905561211f338585856134bc565b90506000805460ff60a01b1916600160a01b1790559392505050565b6004546000906001600160a01b0316331461215c5761118c60016045612c85565b600880546001600160a01b038481166001600160a01b0319831681179093556040805191909216808252602082019390935281517fca4f2f25d0898edd99413412fb94012f9e54ec8142f9b093e7720646a95b16a9929181900390910190a160006112b4565b60008054600160a01b900460ff1661220e576040805162461bcd60e51b815260206004820152600a6024820152691c994b595b9d195c995960b21b604482015290519081900360640190fd5b6000805460ff60a01b19168155612223611bcc565b1461226e576040805162461bcd60e51b81526020600482015260166024820152751858d8dc9d59481a5b9d195c995cdd0819985a5b195960521b604482015290519081900360640190fd5b612276610ecc565b90506000805460ff60a01b1916600160a01b17905590565b6001600160a01b0381166000908152601260205260408120548190819081908180806122b989612fb6565b9350905060008160038111156122cb57fe5b146122e95760095b97506000965086955085945061231c9350505050565b6122f1612696565b92509050600081600381111561230357fe5b1461230f5760096122d3565b5060009650919450925090505b9193509193565b6000610dd482613722565b6005546001600160a01b031681565b6000610dd48261388b565b6001600160a01b03918216600090815260136020908152604080832093909416825291909152205490565b60075481565b6008546000906001600160a01b031633141580612394575033155b156123ac576123a560016000612c85565b9050610f2c565b60048054600880546001600160a01b038082166001600160a01b031980861682179687905590921690925560408051938316808552949092166020840152815190927ff9ffabca9c8276e99321725bcb43fb076a6c66a54b7f21c4e8146d8519b417dc92908290030190a1600854604080516001600160a01b038085168252909216602083015280517fca4f2f25d0898edd99413412fb94012f9e54ec8142f9b093e7720646a95b16a99281900390910190a160009250505090565b600080612473611bcc565b905080156124995761249181601181111561248a57fe5b6040612c85565b915050610deb565b6112b48361306e565b600a546001600160a01b031681565b6000806124bf85858561390f565b5095945050505050565b6004546001600160a01b031681565b600a546000906001600160a01b03166315f240536124f4612b62565b600f546010546040518463ffffffff1660e01b815260040180848152602001838152602001828152602001935050505060206040518083038186803b15801561208957600080fd5b60035461010090046001600160a01b031681565b60008054600160a01b900460ff1661259c576040805162461bcd60e51b815260206004820152600a6024820152691c994b595b9d195c995960b21b604482015290519081900360640190fd5b6000805460ff60a01b191681556125b1611bcc565b905080156125cf576117388160118111156125c857fe5b6046612c85565b61174983613a51565b600181565b600080548190600160a01b900460ff1661262b576040805162461bcd60e51b815260206004820152600a6024820152691c994b595b9d195c995960b21b604482015290519081900360640190fd5b6000805460ff60a01b19168155612640611bcc565b9050801561266b5761265e81601181111561265757fe5b6036612c85565b92506000915061267c9050565b612676333386613af4565b92509250505b6000805460ff60a01b1916600160a01b1790559092909150565b6011546000908190806126b1575050600b5460009150612741565b60006126bb612b62565b905060006126c7615794565b60006126d884600f54601054613ed9565b9350905060008160038111156126ea57fe5b146126ff579550600094506127419350505050565b6127098386613f17565b92509050600081600381111561271b57fe5b14612730579550600094506127419350505050565b505160009550935061274192505050565b9091565b600954604080516317b9b84b60e31b81523060048201526001600160a01b03868116602483015285811660448301526064820185905291516000938493169163bdcdc25891608480830192602092919082900301818787803b1580156127aa57600080fd5b505af11580156127be573d6000803e3d6000fd5b505050506040513d60208110156127d457600080fd5b5051905080156127f3576127eb6003604a836133d4565b91505061112c565b836001600160a01b0316856001600160a01b03161415612819576127eb6002604b612c85565b60006001600160a01b0387811690871614156128385750600019612860565b506001600160a01b038086166000908152601360209081526040808320938a16835292905220545b6000806000806128708589613349565b9094509250600084600381111561288357fe5b146128a1576128946009604b612c85565b965050505050505061112c565b6001600160a01b038a166000908152601260205260409020546128c49089613349565b909450915060008460038111156128d757fe5b146128e8576128946009604c612c85565b6001600160a01b03891660009081526012602052604090205461290b908961343a565b9094509050600084600381111561291e57fe5b1461292f576128946009604d612c85565b6001600160a01b03808b16600090815260126020526040808220859055918b168152208190556000198514612987576001600160a01b03808b166000908152601360209081526040808320938f168352929052208390555b886001600160a01b03168a6001600160a01b0316600080516020615ab78339815191528a6040518082815260200191505060405180910390a36009546040805163352b4a3f60e11b81523060048201526001600160a01b038d811660248301528c81166044830152606482018c905291519190921691636a56947e91608480830192600092919082900301818387803b158015612a2357600080fd5b505af1158015612a37573d6000803e3d6000fd5b5060009250612a44915050565b9b9a5050505050505050505050565b600080548190600160a01b900460ff16612aa1576040805162461bcd60e51b815260206004820152600a6024820152691c994b595b9d195c995960b21b604482015290519081900360640190fd5b6000805460ff60a01b19168155612ab6611bcc565b90508015612ae157612ad4816011811115612acd57fe5b6035612c85565b925060009150612af29050565b612aec338686613af4565b92509250505b6000805460ff60a01b1916600160a01b17905590939092509050565b6000806000612b1b615794565b612b25868661336c565b90925090506000826003811115612b3857fe5b14612b495750915060009050612b5b565b6000612b5482613fc7565b9350935050505b9250929050565b60008054604080516370a0823160e01b815230600482015290516001600160a01b039092169182916370a08231916024808301926020929190829003018186803b158015612baf57600080fd5b505afa158015612bc3573d6000803e3d6000fd5b505050506040513d6020811015612bd957600080fd5b505191505090565b60008054600160a01b900460ff16612c2d576040805162461bcd60e51b815260206004820152600a6024820152691c994b595b9d195c995960b21b604482015290519081900360640190fd5b6000805460ff60a01b19168155612c42611bcc565b90508015612c6057611738816011811115612c5957fe5b604e612c85565b612c6983613fd6565b509150506000805460ff60a01b1916600160a01b179055919050565b60007f45b96fe442630264581b197e84bbada861235052c5a1aadfff9ea4e40a969aa0836011811115612cb457fe5b836050811115612cc057fe5b604080519283526020830191909152600082820152519081900360600190a18260118111156112b457fe5b60006112b483836040518060400160405280601781526020017f6d756c7469706c69636174696f6e206f766572666c6f770000000000000000008152506140be565b60006112b483836040518060400160405280600e81526020016d646976696465206279207a65726f60901b815250614171565b600080546040805163a9059cbb60e01b81526001600160a01b0386811660048301526024820186905291519190921692839263a9059cbb926044808301939282900301818387803b158015612db457600080fd5b505af1158015612dc8573d6000803e3d6000fd5b50505050505050565b60006112b48383604051806040016040528060118152602001706164646974696f6e206f766572666c6f7760781b8152506141d3565b60045460009081906001600160a01b03163314612e2a5761249160016031612c85565b612e3261306a565b600d5414612e4657612491600a6033612c85565b82612e4f612b62565b1015612e6157612491600e6032612c85565b601054831115612e775761249160026034612c85565b5060105482810390811115612ebd5760405162461bcd60e51b8152600401808060200182810382526024815260200180615bcc6024913960400191505060405180910390fd5b6010819055600554612ed8906001600160a01b031684612d60565b600454604080516001600160a01b03909216825260208201859052818101839052517f3bad0c59cf2f06e7314077049f48a93578cd16f5ef92329f1dab1420a99c177e9181900360600190a160006112b4565b60008054600160a01b900460ff16612f77576040805162461bcd60e51b815260206004820152600a6024820152691c994b595b9d195c995960b21b604482015290519081900360640190fd5b6000805460ff60a01b19168155612f8c611bcc565b90508015612faa57611738816011811115612fa357fe5b6027612c85565b61174933600085614228565b6001600160a01b038116600090815260146020526040812080548291829182918291612fed57506000945084935061306592505050565b612ffd8160000154600e54614736565b9094509250600084600381111561301057fe5b14613025575091935060009250613065915050565b613033838260010154614775565b9094509150600084600381111561304657fe5b1461305b575091935060009250613065915050565b5060009450925050505b915091565b4390565b60045460009081906001600160a01b031633146130915761249160016042612c85565b61309961306a565b600d54146130ad57612491600a6041612c85565b600a60009054906101000a90046001600160a01b03169050826001600160a01b0316632191f92a6040518163ffffffff1660e01b815260040160206040518083038186803b1580156130fe57600080fd5b505afa158015613112573d6000803e3d6000fd5b505050506040513d602081101561312857600080fd5b505161317b576040805162461bcd60e51b815260206004820152601c60248201527f6d61726b6572206d6574686f642072657475726e65642066616c736500000000604482015290519081900360640190fd5b600a80546001600160a01b0319166001600160a01b03858116918217909255604080519284168352602083019190915280517fedffc32e068c7c95dfd4bdfd5c4d939a084d6b11c4199eac8436ed234d72f9269281900390910190a160006112b4565b600080548190600160a01b900460ff1661322c576040805162461bcd60e51b815260206004820152600a6024820152691c994b595b9d195c995960b21b604482015290519081900360640190fd5b6000805460ff60a01b1916905560035461010090046001600160a01b03161561331757600354604080516315fbb7b760e31b8152306004820152336024820152905160009261010090046001600160a01b03169163afddbdb8916044808301926020929190829003018186803b1580156132a557600080fd5b505afa1580156132b9573d6000803e3d6000fd5b505050506040513d60208110156132cf57600080fd5b505190508015613315576040805162461bcd60e51b815260206004820152600c60248201526b1c9a5cdac818dbdb9d1c9bdb60a21b604482015290519081900360640190fd5b505b6000613321611bcc565b9050801561333f5761265e81601181111561333857fe5b601e612c85565b61267633856147a0565b600080838311613360575060009050818303612b5b565b50600390506000612b5b565b6000613376615794565b600080613387866000015186614736565b9092509050600082600381111561339a57fe5b146133b957506040805160208101909152600081529092509050612b5b565b60408051602081019091529081526000969095509350505050565b60007f45b96fe442630264581b197e84bbada861235052c5a1aadfff9ea4e40a969aa084601181111561340357fe5b84605081111561340f57fe5b604080519283526020830191909152818101859052519081900360600190a183601181111561112c57fe5b60008083830184811061345257600092509050612b5b565b506002915060009050612b5b565b600080600061346d615794565b613477878761336c565b9092509050600082600381111561348a57fe5b1461349b57509150600090506134b4565b6134ad6134a782613fc7565b8661343a565b9350935050505b935093915050565b6009546040805163d02f735160e01b81523060048201526001600160a01b038781166024830152868116604483015285811660648301526084820185905291516000938493169163d02f73519160a480830192602092919082900301818787803b15801561352957600080fd5b505af115801561353d573d6000803e3d6000fd5b505050506040513d602081101561355357600080fd5b50519050801561356a576127eb6003601b836133d4565b846001600160a01b0316846001600160a01b03161415613590576127eb6006601c612c85565b6001600160a01b038416600090815260126020526040812054819081906135b79087613349565b909350915060008360038111156135ca57fe5b146135ed576135e26009601a856003811115611db457fe5b94505050505061112c565b6001600160a01b038816600090815260126020526040902054613610908761343a565b9093509050600083600381111561362357fe5b1461363b576135e260096019856003811115611db457fe5b6001600160a01b038088166000818152601260209081526040808320879055938c168083529184902085905583518a815293519193600080516020615ab7833981519152929081900390910190a360095460408051636d35bf9160e01b81523060048201526001600160a01b038c811660248301528b811660448301528a81166064830152608482018a905291519190921691636d35bf919160a480830192600092919082900301818387803b1580156136f457600080fd5b505af1158015613708573d6000803e3d6000fd5b5060009250613715915050565b9998505050505050505050565b60008054600160a01b900460ff1661376e576040805162461bcd60e51b815260206004820152600a6024820152691c994b595b9d195c995960b21b604482015290519081900360640190fd5b6000805460ff60a01b1916905560035461010090046001600160a01b0316156138595760035460408051630a47f38360e31b8152306004820152336024820152905160009261010090046001600160a01b03169163523f9c18916044808301926020929190829003018186803b1580156137e757600080fd5b505afa1580156137fb573d6000803e3d6000fd5b505050506040513d602081101561381157600080fd5b505190508015613857576040805162461bcd60e51b815260206004820152600c60248201526b1c9a5cdac818dbdb9d1c9bdb60a21b604482015290519081900360640190fd5b505b6000613863611bcc565b905080156138815761173881601181111561387a57fe5b6008612c85565b6117493384614bff565b60008054600160a01b900460ff166138d7576040805162461bcd60e51b815260206004820152600a6024820152691c994b595b9d195c995960b21b604482015290519081900360640190fd5b6000805460ff60a01b191681556138ec611bcc565b9050801561390357611738816011811115612fa357fe5b61174933846000614228565b600080548190600160a01b900460ff1661395d576040805162461bcd60e51b815260206004820152600a6024820152691c994b595b9d195c995960b21b604482015290519081900360640190fd5b6000805460ff60a01b19168155613972611bcc565b9050801561399d5761399081601181111561398957fe5b600f612c85565b925060009150613a349050565b836001600160a01b031663a6afed956040518163ffffffff1660e01b8152600401602060405180830381600087803b1580156139d857600080fd5b505af11580156139ec573d6000803e3d6000fd5b505050506040513d6020811015613a0257600080fd5b505190508015613a2257613990816011811115613a1b57fe5b6010612c85565b613a2e33878787614f3f565b92509250505b6000805460ff60a01b1916600160a01b1790559094909350915050565b6004546000906001600160a01b03163314613a725761118c60016047612c85565b613a7a61306a565b600d5414613a8e5761118c600a6048612c85565b670de0b6b3a7640000821115613aaa5761118c60026049612c85565b600c805490839055604080518281526020810185905281517faaa68312e2ea9d50e16af5068410ab56e1a1fd06037b1a35664812c30f821460929181900390910190a160006112b4565b60095460408051631200453160e11b81523060048201526001600160a01b0386811660248301528581166044830152606482018590529151600093849384939116916324008a629160848082019260209290919082900301818787803b158015613b5d57600080fd5b505af1158015613b71573d6000803e3d6000fd5b505050506040513d6020811015613b8757600080fd5b505190508015613bab57613b9e60036038836133d4565b9250600091506134b49050565b613bb361306a565b600d5414613bc757613b9e600a6039612c85565b613bcf615825565b6001600160a01b0386166000908152601460205260409020600101546060820152613bf986612fb6565b6080830181905260208301826003811115613c1057fe5b6003811115613c1b57fe5b9052506000905081602001516003811115613c3257fe5b14613c5c57613c4e6009603783602001516003811115611db457fe5b9350600092506134b4915050565b600019851415613c755760808101516040820152613c7d565b604081018590525b613c8b8782604001516154c2565b60e082018190526080820151613ca091613349565b60a0830181905260208301826003811115613cb757fe5b6003811115613cc257fe5b9052506000905081602001516003811115613cd957fe5b14613d155760405162461bcd60e51b815260040180806020018281038252603a815260200180615a4b603a913960400191505060405180910390fd5b613d25600f548260e00151613349565b60c0830181905260208301826003811115613d3c57fe5b6003811115613d4757fe5b9052506000905081602001516003811115613d5e57fe5b14613d9a5760405162461bcd60e51b8152600401808060200182810382526031815260200180615ad76031913960400191505060405180910390fd5b60a080820180516001600160a01b03808a16600081815260146020908152604091829020948555600e5460019095019490945560c0870151600f81905560e088015195518251948f16855294840192909252828101949094526060820192909252608081019190915290517f1a2a22cb034d26d1854bdc6666a5b91fe25efbbb5dcad3b0355478d6f5c362a1929181900390910190a160095460e0820151606083015160408051631ededc9160e01b81523060048201526001600160a01b038c811660248301528b8116604483015260648201949094526084810192909252519190921691631ededc919160a480830192600092919082900301818387803b158015613ea557600080fd5b505af1158015613eb9573d6000803e3d6000fd5b5060009250613ec6915050565b8160e00151935093505050935093915050565b600080600080613ee9878761343a565b90925090506000826003811115613efc57fe5b14613f0d57509150600090506134b4565b6134ad8186613349565b6000613f21615794565b600080613f3686670de0b6b3a7640000614736565b90925090506000826003811115613f4957fe5b14613f6857506040805160208101909152600081529092509050612b5b565b600080613f758388614775565b90925090506000826003811115613f8857fe5b14613faa57506040805160208101909152600081529094509250612b5b915050565b604080516020810190915290815260009890975095505050505050565b51670de0b6b3a7640000900490565b600080600080613fe461306a565b600d541461400357613ff8600a604f612c85565b935091506130659050565b61400d33866154c2565b90508060105401915060105482101561406d576040805162461bcd60e51b815260206004820181905260248201527f61646420726573657276657320756e6578706563746564206f766572666c6f77604482015290519081900360640190fd5b6010829055604080513381526020810183905280820184905290517fa91e67c5ea634cd43a12c5a482724b03de01e85ca68702a53d0c2f45cb7c1dc59181900360600190a160009350915050915091565b60008315806140cb575082155b156140d8575060006112b4565b838302838582816140e557fe5b0414839061105d5760405162461bcd60e51b81526004018080602001828103825283818151815260200191508051906020019080838360005b8381101561413657818101518382015260200161411e565b50505050905090810190601f1680156141635780820380516001836020036101000a031916815260200191505b509250505060405180910390fd5b600081836141c05760405162461bcd60e51b815260206004820181815283516024840152835190928392604490910191908501908083836000831561413657818101518382015260200161411e565b508284816141ca57fe5b04949350505050565b6000838301828582101561105d5760405162461bcd60e51b815260206004820181815283516024840152835190928392604490910191908501908083836000831561413657818101518382015260200161411e565b6000821580614235575081155b6142705760405162461bcd60e51b8152600401808060200182810382526034815260200180615b986034913960400191505060405180910390fd5b61427861586b565b614280612696565b604083018190526020830182600381111561429757fe5b60038111156142a257fe5b90525060009050816020015160038111156142b957fe5b146142dd576142d56009602b83602001516003811115611db457fe5b9150506112b4565b831561435e5760608101849052604080516020810182529082015181526143049085612b0e565b608083018190526020830182600381111561431b57fe5b600381111561432657fe5b905250600090508160200151600381111561433d57fe5b14614359576142d56009602983602001516003811115611db457fe5b6143d7565b61437a836040518060200160405280846040015181525061568a565b606083018190526020830182600381111561439157fe5b600381111561439c57fe5b90525060009050816020015160038111156143b357fe5b146143cf576142d56009602a83602001516003811115611db457fe5b608081018390525b60095460608201516040805163eabe7d9160e01b81523060048201526001600160a01b03898116602483015260448201939093529051600093929092169163eabe7d919160648082019260209290919082900301818787803b15801561443c57600080fd5b505af1158015614450573d6000803e3d6000fd5b505050506040513d602081101561446657600080fd5b5051905080156144865761447d60036028836133d4565b925050506112b4565b61448e61306a565b600d54146144a25761447d600a602c612c85565b6144b26011548360600151613349565b60a08401819052602084018260038111156144c957fe5b60038111156144d457fe5b90525060009050826020015160038111156144eb57fe5b146145075761447d6009602e84602001516003811115611db457fe5b6001600160a01b038616600090815260126020526040902054606083015161452f9190613349565b60c084018190526020840182600381111561454657fe5b600381111561455157fe5b905250600090508260200151600381111561456857fe5b146145845761447d6009602d84602001516003811115611db457fe5b8160800151614591612b62565b10156145a35761447d600e602f612c85565b60008260800151905060006145cb6145bd83600654612ceb565b670de0b6b3a7640000612d2d565b90506145d960105482612dd1565b6010556145e682826156a1565b91506145f6888560800151612d60565b60a084015160115560c08401516001600160a01b038916600081815260126020908152604091829020939093556060870151815190815290513093600080516020615ab7833981519152928290030190a36080840151606080860151604080516001600160a01b038d168152602081019490945283810191909152517fe5b754fb1abb7f01b499791d0b820ae3b6af3424ac1c59768edb53f4ec31a9299281900390910190a160095460808501516060860151604080516351dff98960e01b81523060048201526001600160a01b038d81166024830152604482019490945260648101929092525191909216916351dff98991608480830192600092919082900301818387803b15801561470957600080fd5b505af115801561471d573d6000803e3d6000fd5b506000925061472a915050565b98975050505050505050565b6000808361474957506000905080612b5b565b8383028385828161475657fe5b041461476a57506002915060009050612b5b565b600092509050612b5b565b600080826147895750600190506000612b5b565b600083858161479457fe5b04915091509250929050565b60095460408051634ef4c3e160e01b81523060048201526001600160a01b03858116602483015260448201859052915160009384938493911691634ef4c3e19160648082019260209290919082900301818787803b15801561480157600080fd5b505af1158015614815573d6000803e3d6000fd5b505050506040513d602081101561482b57600080fd5b50519050801561484f576148426003601f836133d4565b925060009150612b5b9050565b61485761306a565b600d541461486b57614842600a6022612c85565b61487361586b565b61487b612696565b604083018190526020830182600381111561489257fe5b600381111561489d57fe5b90525060009050816020015160038111156148b457fe5b146148de576148d06009602183602001516003811115611db457fe5b935060009250612b5b915050565b6148e886866154c2565b60c0820181905260408051602081018252908301518152614909919061568a565b606083018190526020830182600381111561492057fe5b600381111561492b57fe5b905250600090508160200151600381111561494257fe5b14614994576040805162461bcd60e51b815260206004820181905260248201527f4d494e545f45584348414e47455f43414c43554c4154494f4e5f4641494c4544604482015290519081900360640190fd5b6149a4601154826060015161343a565b60808301819052602083018260038111156149bb57fe5b60038111156149c657fe5b90525060009050816020015160038111156149dd57fe5b14614a195760405162461bcd60e51b8152600401808060200182810382526028815260200180615b706028913960400191505060405180910390fd5b6001600160a01b0386166000908152601260205260409020546060820151614a41919061343a565b60a0830181905260208301826003811115614a5857fe5b6003811115614a6357fe5b9052506000905081602001516003811115614a7a57fe5b14614ab65760405162461bcd60e51b815260040180806020018281038252602b8152602001806159e9602b913960400191505060405180910390fd5b608081015160115560a08101516001600160a01b0387166000818152601260209081526040918290209390935560c084015160608086015183519485529484019190915282820193909352517f4c209b5fc8ad50758f13e2e1088ba56a560dff690a1c6fef26394f4c03821c4f929181900390910190a1606081015160408051918252516001600160a01b038816913091600080516020615ab78339815191529181900360200190a360095460c08201516060830151604080516341c728b960e01b81523060048201526001600160a01b038b81166024830152604482019490945260648101929092525191909216916341c728b991608480830192600092919082900301818387803b158015614bcc57600080fd5b505af1158015614be0573d6000803e3d6000fd5b5060009250614bed915050565b8160c001519350935050509250929050565b6009546040805163368f515360e21b81523060048201526001600160a01b0385811660248301526044820185905291516000938493169163da3d454c91606480830192602092919082900301818787803b158015614c5c57600080fd5b505af1158015614c70573d6000803e3d6000fd5b505050506040513d6020811015614c8657600080fd5b505190508015614ca557614c9d6003600e836133d4565b915050610dd4565b614cad61306a565b600d5414614cc057614c9d600a80612c85565b82614cc9612b62565b1015614cdb57614c9d600e6009612c85565b614ce36158a9565b614cec85612fb6565b6020830181905282826003811115614d0057fe5b6003811115614d0b57fe5b9052506000905081516003811115614d1f57fe5b14614d4457614d3b6009600783600001516003811115611db457fe5b92505050610dd4565b614d5281602001518561343a565b6040830181905282826003811115614d6657fe5b6003811115614d7157fe5b9052506000905081516003811115614d8557fe5b14614da157614d3b6009600c83600001516003811115611db457fe5b614dad600f548561343a565b6060830181905282826003811115614dc157fe5b6003811115614dcc57fe5b9052506000905081516003811115614de057fe5b14614dfc57614d3b6009600b83600001516003811115611db457fe5b6000614e0d6145bd86600754612ceb565b9050614e1b60105482612dd1565b6010556000614e2a86836156a1565b9050614e368782612d60565b604080840180516001600160a01b038a1660008181526014602090815290859020928355600e54600190930192909255606080880151600f819055935185519283529282018b9052818501929092529081019190915290517f13ed6866d4e1ee6da46f845c46d7e54120883d75c5ea9a2dacc1c4ca8984ab809181900360800190a160095460408051635c77860560e01b81523060048201526001600160a01b038a81166024830152604482018a905291519190921691635c77860591606480830192600092919082900301818387803b158015614f1357600080fd5b505af1158015614f27573d6000803e3d6000fd5b5060009250614f34915050565b979650505050505050565b60095460408051632fe3f38f60e11b81523060048201526001600160a01b0384811660248301528781166044830152868116606483015260848201869052915160009384938493911691635fc7e71e9160a48082019260209290919082900301818787803b158015614fb057600080fd5b505af1158015614fc4573d6000803e3d6000fd5b505050506040513d6020811015614fda57600080fd5b505190508015614ffe57614ff160036012836133d4565b9250600091506154b99050565b61500661306a565b600d541461501a57614ff1600a6016612c85565b61502261306a565b846001600160a01b0316636c540baf6040518163ffffffff1660e01b815260040160206040518083038186803b15801561505b57600080fd5b505afa15801561506f573d6000803e3d6000fd5b505050506040513d602081101561508557600080fd5b50511461509857614ff1600a6011612c85565b866001600160a01b0316866001600160a01b031614156150be57614ff160066017612c85565b846150cf57614ff160076015612c85565b6000198514156150e557614ff160076014612c85565b6000806150f3898989613af4565b909250905081156151235761511482601181111561510d57fe5b6018612c85565b9450600093506154b992505050565b6009546040805163c488847b60e01b81523060048201526001600160a01b038981166024830152604482018590528251600094859492169263c488847b926064808301939192829003018186803b15801561517d57600080fd5b505afa158015615191573d6000803e3d6000fd5b505050506040513d60408110156151a757600080fd5b508051602090910151909250905081156151f25760405162461bcd60e51b8152600401808060200182810382526033815260200180615b086033913960400191505060405180910390fd5b80886001600160a01b03166370a082318c6040518263ffffffff1660e01b815260040180826001600160a01b03166001600160a01b0316815260200191505060206040518083038186803b15801561524957600080fd5b505afa15801561525d573d6000803e3d6000fd5b505050506040513d602081101561527357600080fd5b505110156152c8576040805162461bcd60e51b815260206004820152601860248201527f4c49515549444154455f5345495a455f544f4f5f4d5543480000000000000000604482015290519081900360640190fd5b60006001600160a01b0389163014156152ee576152e7308d8d856134bc565b9050615378565b6040805163b2a02ff160e01b81526001600160a01b038e811660048301528d81166024830152604482018590529151918b169163b2a02ff1916064808201926020929091908290030181600087803b15801561534957600080fd5b505af115801561535d573d6000803e3d6000fd5b505050506040513d602081101561537357600080fd5b505190505b80156153c2576040805162461bcd60e51b81526020600482015260146024820152731d1bdad95b881cd95a5e9d5c994819985a5b195960621b604482015290519081900360640190fd5b604080516001600160a01b03808f168252808e1660208301528183018790528b1660608201526080810184905290517f298637f684da70674f26509b10f07ec2fbc77a335ab1e7d6215a4b2484d8bb529181900360a00190a1600954604080516347ef3b3b60e01b81523060048201526001600160a01b038c811660248301528f811660448301528e811660648301526084820188905260a48201869052915191909216916347ef3b3b9160c480830192600092919082900301818387803b15801561548d57600080fd5b505af11580156154a1573d6000803e3d6000fd5b50600092506154ae915050565b975092955050505050505b94509492505050565b60008054604080516370a0823160e01b815230600482015290516001600160a01b0390921691839183916370a0823191602480820192602092909190829003018186803b15801561551257600080fd5b505afa158015615526573d6000803e3d6000fd5b505050506040513d602081101561553c57600080fd5b5051604080516323b872dd60e01b81526001600160a01b038881166004830152306024830152604482018890529151929350908416916323b872dd9160648082019260009290919082900301818387803b15801561559957600080fd5b505af11580156155ad573d6000803e3d6000fd5b505060008054604080516370a0823160e01b815230600482015290519294506001600160a01b0390911692506370a08231916024808301926020929190829003018186803b1580156155fe57600080fd5b505afa158015615612573d6000803e3d6000fd5b505050506040513d602081101561562857600080fd5b5051905081811015615681576040805162461bcd60e51b815260206004820152601a60248201527f544f4b454e5f5452414e534645525f494e5f4f564552464c4f57000000000000604482015290519081900360640190fd5b03949350505050565b6000806000615697615794565b612b2586866156db565b60006112b48383604051806040016040528060158152602001747375627472616374696f6e20756e646572666c6f7760581b81525061573a565b60006156e5615794565b6000806156fa670de0b6b3a764000087614736565b9092509050600082600381111561570d57fe5b1461572c57506040805160208101909152600081529092509050612b5b565b612b54818660000151613f17565b6000818484111561578c5760405162461bcd60e51b815260206004820181815283516024840152835190928392604490910191908501908083836000831561413657818101518382015260200161411e565b505050900390565b6040518060200160405280600081525090565b828054600181600116156101000203166002900490600052602060002090601f016020900481019282601f106157e857805160ff1916838001178555615815565b82800160010185558215615815579182015b828111156158155782518255916020019190600101906157fa565b506158219291506158d2565b5090565b6040805161010081019091528060008152602001600081526020016000815260200160008152602001600081526020016000815260200160008152602001600081525090565b6040805160e0810190915280600081526020016000815260200160008152602001600081526020016000815260200160008152602001600081525090565b604080516080810190915280600081526020016000815260200160008152602001600081525090565b610f2c91905b8082111561582157600081556001016158d856fe6f6e6c792061646d696e206d617920696e697469616c697a6520746865206d61726b65745468657265206973206e6f7420656e6f756768206c697175696469747920617661696c61626c6520746f20626f72726f776d61726b6574206d6179206f6e6c7920626520696e697469616c697a6564206f6e6365696e697469616c2065786368616e67652072617465206d7573742062652067726561746572207468616e207a65726f2e73657474696e6720696e7465726573742072617465206d6f64656c206661696c65645468652061637475616c2062616c616e6365206f66207468652070726f746f636f6c20697320696e636f6e73697374656e744d494e545f4e45575f4143434f554e545f42414c414e43455f43414c43554c4154494f4e5f4641494c4544626f72726f7742616c616e636553746f7265643a20626f72726f7742616c616e636553746f726564496e7465726e616c206661696c656452455041595f424f52524f575f4e45575f4143434f554e545f424f52524f575f42414c414e43455f43414c43554c4154494f4e5f4641494c45445468652072657175657374656420616d6f756e7420697320746f6f20736d616c6c20666f72206120666c6173684c6f616e2eddf252ad1be2c89b69c2b068fc378daa952ba7f163c4a11628f55a4df523b3ef52455041595f424f52524f575f4e45575f544f54414c5f42414c414e43455f43414c43554c4154494f4e5f4641494c45444c49515549444154455f434f4d5054524f4c4c45525f43414c43554c4154455f414d4f554e545f5345495a455f4641494c454465786368616e67655261746553746f7265643a2065786368616e67655261746553746f726564496e7465726e616c206661696c65644d494e545f4e45575f544f54414c5f535550504c595f43414c43554c4154494f4e5f4641494c45446f6e65206f662072656465656d546f6b656e73496e206f722072656465656d416d6f756e74496e206d757374206265207a65726f72656475636520726573657276657320756e657870656374656420756e646572666c6f77a265627a7a72305820e5c6583100aa9db318c711ce5bc74a1d3ff7eeca6a6949d28a74cc327195803764736f6c63430005090032",
  "source": "pragma solidity ^0.5.9;\n\nimport \"./CToken.sol\";\nimport \"./interface/CErc20Interface.sol\";\n\n/**\n * @title Compound's CErc20 Contract\n * @notice CTokens which wrap an EIP-20 underlying\n * @author Compound\n */\ncontract CErc20 is CToken, CErc20Interface {\n    /**\n     * @notice Initialize the new money market\n     * @param underlying_ The address of the underlying asset\n     * @param comptroller_ The address of the Comptroller\n     * @param interestRateModel_ The address of the interest rate model\n     * @param initialExchangeRateMantissa_ The initial exchange rate, scaled by 1e18\n     * @param name_ ERC-20 name of this token\n     * @param symbol_ ERC-20 symbol of this token\n     * @param decimals_ ERC-20 decimal precision of this token\n     */\n    function initialize(address underlying_,\n        ComptrollerInterface comptroller_,\n        InterestRateModel interestRateModel_,\n        uint initialExchangeRateMantissa_,\n        string memory name_,\n        string memory symbol_,\n        uint8 decimals_) public {\n        // CToken initialize does the bulk of the work\n        super.initialize(comptroller_, interestRateModel_, initialExchangeRateMantissa_, name_, symbol_, decimals_);\n\n        // Set underlying and sanity check it\n        underlying = underlying_;\n        IERC20(underlying).totalSupply();\n    }\n\n    /*** User Interface ***/\n\n    /**\n     * @notice Sender supplies assets into the market and receives cTokens in exchange\n     * @dev Accrues interest whether or not the operation succeeds, unless reverted\n     * @param mintAmount The amount of the underlying asset to supply\n     * @return uint 0=success, otherwise a failure (see ErrorReporter.sol for details)\n     */\n    function mint(uint mintAmount) external returns (uint) {\n        (uint err,) = mintInternal(mintAmount);\n        return err;\n    }\n\n    /**\n     * @notice Sender redeems cTokens in exchange for the underlying asset\n     * @dev Accrues interest whether or not the operation succeeds, unless reverted\n     * @param redeemTokens The number of cTokens to redeem into underlying\n     * @return uint 0=success, otherwise a failure (see ErrorReporter.sol for details)\n     */\n    function redeem(uint redeemTokens) external returns (uint) {\n        return redeemInternal(redeemTokens);\n    }\n\n    /**\n     * @notice Sender redeems cTokens in exchange for a specified amount of underlying asset\n     * @dev Accrues interest whether or not the operation succeeds, unless reverted\n     * @param redeemAmount The amount of underlying to redeem\n     * @return uint 0=success, otherwise a failure (see ErrorReporter.sol for details)\n     */\n    function redeemUnderlying(uint redeemAmount) external returns (uint) {\n        return redeemUnderlyingInternal(redeemAmount);\n    }\n\n    /**\n      * @notice Sender borrows assets from the protocol to their own address\n      * @param borrowAmount The amount of the underlying asset to borrow\n      * @return uint 0=success, otherwise a failure (see ErrorReporter.sol for details)\n      */\n    function borrow(uint borrowAmount) external returns (uint) {\n        return borrowInternal(borrowAmount);\n    }\n\n    /**\n     * @notice Sender repays their own borrow\n     * @param repayAmount The amount to repay\n     * @return uint 0=success, otherwise a failure (see ErrorReporter.sol for details)\n     */\n    function repayBorrow(uint repayAmount) external returns (uint) {\n        (uint err,) = repayBorrowInternal(repayAmount);\n        return err;\n    }\n\n    /**\n     * @notice Sender repays a borrow belonging to borrower\n     * @param borrower the account with the debt being payed off\n     * @param repayAmount The amount to repay\n     * @return uint 0=success, otherwise a failure (see ErrorReporter.sol for details)\n     */\n    function repayBorrowBehalf(address borrower, uint repayAmount) external returns (uint) {\n        (uint err,) = repayBorrowBehalfInternal(borrower, repayAmount);\n        return err;\n    }\n\n    /**\n     * @notice The sender liquidates the borrowers collateral.\n     *  The collateral seized is transferred to the liquidator.\n     * @param borrower The borrower of this cToken to be liquidated\n     * @param repayAmount The amount of the underlying borrowed asset to repay\n     * @param cTokenCollateral The market in which to seize collateral from the borrower\n     * @return uint 0=success, otherwise a failure (see ErrorReporter.sol for details)\n     */\n    function liquidateBorrow(\n        address borrower,\n        uint repayAmount,\n        CTokenInterface cTokenCollateral\n    ) external returns (uint) {\n        (uint err,) = liquidateBorrowInternal(borrower, repayAmount, cTokenCollateral);\n        return err;\n    }\n\n    /**\n     * @notice The sender adds to reserves.\n     * @param addAmount The amount fo underlying token to add as reserves\n     * @return uint 0=success, otherwise a failure (see ErrorReporter.sol for details)\n     */\n    function _addReserves(uint addAmount) external returns (uint) {\n        return _addReservesInternal(addAmount);\n    }\n\n    /*** Safe Token ***/\n\n    /**\n     * @notice Gets balance of this contract in terms of the underlying\n     * @dev This excludes the value of the current message, if any\n     * @return The quantity of underlying tokens owned by this contract\n     */\n    function getCashPrior() internal view returns (uint) {\n        IERC20 token = IERC20(underlying);\n        return token.balanceOf(address(this));\n    }\n\n    /**\n     * @dev Similar to EIP20 transfer, except it handles a False result from `transferFrom` and reverts in that case.\n     *      This will revert due to insufficient balance or insufficient allowance.\n     *      This function returns the actual amount received,\n     *      which may be less than `amount` if there is a fee attached to the transfer.\n     *\n     *      Note: This wrapper safely handles non-standard ERC-20 tokens that do not return a value.\n     *            See here:\n                  https://medium.com/coinmonks/missing-return-value-bug-at-least-130-tokens-affected-d67bf08521ca\n     */\n    function doTransferIn(address from, uint amount) internal returns (uint) {\n        EIP20NonStandardInterface token = EIP20NonStandardInterface(underlying);\n        uint balanceBefore = IERC20(underlying).balanceOf(address(this));\n        token.transferFrom(from, address(this), amount);\n        //todo EIP20Non\n        //        bool success;\n        //        assembly {\n        //            switch returndatasize()\n        //            case 0 {// This is a non-standard ERC-20\n        //                success := not(0)          // set success to true\n        //            }\n        //            case 32 {// This is a compliant ERC-20\n        //                returndatacopy(0, 0, 32)\n        //                success := mload(0)        // Set `success = returndata` of external call\n        //            }\n        //            default {// This is an excessively non-compliant ERC-20, revert.\n        //                revert(0, 0)\n        //            }\n        //        }\n        //        require(success, \"TOKEN_TRANSFER_IN_OVERFLOWSFER_IN_FAILED\");\n\n        // Calculate the amount that was *actually* transferred\n        uint balanceAfter = IERC20(underlying).balanceOf(address(this));\n        require(balanceAfter >= balanceBefore, \"TOKEN_TRANSFER_IN_OVERFLOW\");\n        return balanceAfter - balanceBefore;\n        // underflow already checked above, just subtract\n    }\n\n    /**\n     * @dev Similar to EIP20 transfer, except it handles a False success from `transfer` and returns an explanatory\n     *      error code rather than reverting.\n     *      If caller has not called checked protocol's balance, this may revert due to\n     *      insufficient cash held in this contract. If caller has checked protocol's balance prior to this call,\n     *      and verified\n     *      it is >= amount, this should not revert in normal conditions.\n     *\n     *      Note: This wrapper safely handles non-standard ERC-20 tokens that do not return a value.\n     *            See here:\n     *         https://medium.com/coinmonks/missing-return-value-bug-at-least-130-tokens-affected-d67bf08521ca\n     */\n    //todo EIP20Non for tron usdt\n    function doTransferOut(address payable to, uint amount) internal {\n        EIP20NonStandardInterface token = EIP20NonStandardInterface(underlying);\n        token.transfer(to, amount);\n\n        //        bool success;\n        //        assembly {\n        //            switch returndatasize()\n        //            case 0 {// This is a non-standard ERC-20\n        //                success := not(0)          // set success to true\n        //            }\n        //            case 32 {// This is a complaint ERC-20\n        //                returndatacopy(0, 0, 32)\n        //                success := mload(0)        // Set `success = returndata` of external call\n        //            }\n        //            default {// This is an excessively non-compliant ERC-20, revert.\n        //                revert(0, 0)\n        //            }\n        //        }\n        //        require(success, \"TOKEN_TRANSFER_OUT_FAILED\");\n    }\n}\n",
  "sourcePath": "/Users/jjz/Documents/workspace/cryptocurrency/contract/foxdex/lending/contracts/CErc20.sol",
  "compiler": {
    "name": "solc",
    "version": "0.5.9+commit.e560f70d.Emscripten.clang"
  },
  "schemaVersion": "3.3.3",
  "updatedAt": "2021-02-01T06:18:05.394Z",
  "networkType": "ethereum",
  "devdoc": {
    "author": "Compound",
    "methods": {
      "_acceptAdmin()": {
        "details": "Admin function for pending admin to accept role and update admin",
        "return": "uint 0=success, otherwise a failure (see ErrorReporter.sol for details)"
      },
      "_addReserves(uint256)": {
        "params": {
          "addAmount": "The amount fo underlying token to add as reserves"
        },
        "return": "uint 0=success, otherwise a failure (see ErrorReporter.sol for details)"
      },
      "_reduceReserves(uint256)": {
        "params": {
          "reduceAmount": "Amount of reduction to reserves"
        },
        "return": "uint 0=success, otherwise a failure (see ErrorReporter.sol for details)"
      },
      "_setComptroller(address)": {
        "details": "Admin function to set a new comptroller",
        "return": "uint 0=success, otherwise a failure (see ErrorReporter.sol for details)"
      },
      "_setInterestRateModel(address)": {
        "details": "Admin function to accrue interest and update the interest rate model",
        "params": {
          "newInterestRateModel": "the new interest rate model to use"
        },
        "return": "uint 0=success, otherwise a failure (see ErrorReporter.sol for details)"
      },
      "_setPendingAdmin(address)": {
        "details": "Admin function to begin change of admin.     The newPendingAdmin must call `_acceptAdmin` to finalize the transfer.",
        "params": {
          "newPendingAdmin": "New pending admin."
        },
        "return": "uint 0=success, otherwise a failure (see ErrorReporter.sol for details)"
      },
      "_setReserveFactor(uint256)": {
        "details": "Admin function to accrue interest and set a new reserve factor",
        "return": "uint 0=success, otherwise a failure (see ErrorReporter.sol for details)"
      },
      "accrueInterest()": {
        "details": "This calculates interest accrued from the last checkpointed block  up to the current block and writes new checkpoint to storage."
      },
      "allowance(address,address)": {
        "params": {
          "owner": "The address of the account which owns the tokens to be spent",
          "spender": "The address of the account which may transfer tokens"
        },
        "return": "The number of tokens allowed to be spent (-1 means infinite)"
      },
      "approve(address,uint256)": {
        "details": "This will overwrite the approval amount for `spender` and is subject to issues noted [here](https://eips.ethereum.org/EIPS/eip-20#approve)",
        "params": {
          "amount": "The number of tokens that are approved (-1 means infinite)",
          "spender": "The address of the account which may transfer tokens"
        },
        "return": "Whether or not the approval succeeded"
      },
      "balanceOf(address)": {
        "params": {
          "owner": "The address of the account to query"
        },
        "return": "The number of tokens owned by `owner`"
      },
      "balanceOfUnderlying(address)": {
        "details": "This also accrues interest in a transaction",
        "params": {
          "owner": "The address of the account to query"
        },
        "return": "The amount of underlying owned by `owner`"
      },
      "borrow(uint256)": {
        "params": {
          "borrowAmount": "The amount of the underlying asset to borrow"
        },
        "return": "uint 0=success, otherwise a failure (see ErrorReporter.sol for details)"
      },
      "borrowBalanceCurrent(address)": {
        "params": {
          "account": "The address whose balance should be calculated after updating borrowIndex"
        },
        "return": "The calculated balance"
      },
      "borrowBalanceStored(address)": {
        "params": {
          "account": "The address whose balance should be calculated"
        },
        "return": "The calculated balance"
      },
      "borrowRatePerBlock()": {
        "return": "The borrow interest rate per block, scaled by 1e18"
      },
      "exchangeRateCurrent()": {
        "return": "Calculated exchange rate scaled by 1e18"
      },
      "exchangeRateStored()": {
        "details": "This function does not accrue interest before calculating the exchange rate",
        "return": "Calculated exchange rate scaled by 1e18"
      },
      "flashLoan(address,address,uint256,bytes)": {
        "details": "allows smartcontracts to access the liquidity of the pool within one transaction, as long as the amount taken plus a fee is returned. NOTE There are security concerns for developers of flashloan receiver contracts that must be kept into consideration. For further details please visit https://developers.aave.com",
        "params": {
          "_amount": "the amount requested for this flashloan*",
          "_receiver": "The address of the contract receiving the funds. The receiver should implement the IFlashLoanReceiver interface.",
          "_reserve": "the address of the principal reserve"
        }
      },
      "getAccountSnapshot(address)": {
        "details": "This is used by comptroller to more efficiently perform liquidity checks.",
        "params": {
          "account": "Address of the account to snapshot"
        },
        "return": "(possible error, token balance, borrow balance, exchange rate mantissa)"
      },
      "getCash()": {
        "return": "The quantity of underlying asset owned by this contract"
      },
      "initialize(address,address,address,uint256,string,string,uint8)": {
        "params": {
          "comptroller_": "The address of the Comptroller",
          "decimals_": "ERC-20 decimal precision of this token",
          "initialExchangeRateMantissa_": "The initial exchange rate, scaled by 1e18",
          "interestRateModel_": "The address of the interest rate model",
          "name_": "ERC-20 name of this token",
          "symbol_": "ERC-20 symbol of this token",
          "underlying_": "The address of the underlying asset"
        }
      },
      "initialize(address,address,uint256,string,string,uint8)": {
        "params": {
          "comptroller_": "The address of the Comptroller",
          "decimals_": "EIP-20 decimal precision of this token",
          "initialExchangeRateMantissa_": "The initial exchange rate, scaled by 1e18",
          "interestRateModel_": "The address of the interest rate model",
          "name_": "EIP-20 name of this token",
          "symbol_": "EIP-20 symbol of this token"
        }
      },
      "liquidateBorrow(address,uint256,address)": {
        "params": {
          "borrower": "The borrower of this cToken to be liquidated",
          "cTokenCollateral": "The market in which to seize collateral from the borrower",
          "repayAmount": "The amount of the underlying borrowed asset to repay"
        },
        "return": "uint 0=success, otherwise a failure (see ErrorReporter.sol for details)"
      },
      "mint(uint256)": {
        "details": "Accrues interest whether or not the operation succeeds, unless reverted",
        "params": {
          "mintAmount": "The amount of the underlying asset to supply"
        },
        "return": "uint 0=success, otherwise a failure (see ErrorReporter.sol for details)"
      },
      "redeem(uint256)": {
        "details": "Accrues interest whether or not the operation succeeds, unless reverted",
        "params": {
          "redeemTokens": "The number of cTokens to redeem into underlying"
        },
        "return": "uint 0=success, otherwise a failure (see ErrorReporter.sol for details)"
      },
      "redeemUnderlying(uint256)": {
        "details": "Accrues interest whether or not the operation succeeds, unless reverted",
        "params": {
          "redeemAmount": "The amount of underlying to redeem"
        },
        "return": "uint 0=success, otherwise a failure (see ErrorReporter.sol for details)"
      },
      "repayBorrow(uint256)": {
        "params": {
          "repayAmount": "The amount to repay"
        },
        "return": "uint 0=success, otherwise a failure (see ErrorReporter.sol for details)"
      },
      "repayBorrowBehalf(address,uint256)": {
        "params": {
          "borrower": "the account with the debt being payed off",
          "repayAmount": "The amount to repay"
        },
        "return": "uint 0=success, otherwise a failure (see ErrorReporter.sol for details)"
      },
      "seize(address,address,uint256)": {
        "details": "Will fail unless called by another cToken during the process of liquidation. Its absolutely critical to use msg.sender as the borrowed cToken and not a parameter.",
        "params": {
          "borrower": "The account having collateral seized",
          "liquidator": "The account receiving seized collateral",
          "seizeTokens": "The number of cTokens to seize"
        },
        "return": "uint 0=success, otherwise a failure (see ErrorReporter.sol for details)"
      },
      "supplyRatePerBlock()": {
        "return": "The supply interest rate per block, scaled by 1e18"
      },
      "totalBorrowsCurrent()": {
        "return": "The total borrows with interest"
      },
      "transfer(address,uint256)": {
        "params": {
          "amount": "The number of tokens to transfer",
          "dst": "The address of the destination account"
        },
        "return": "Whether or not the transfer succeeded"
      },
      "transferFrom(address,address,uint256)": {
        "params": {
          "amount": "The number of tokens to transfer",
          "dst": "The address of the destination account",
          "src": "The address of the source account"
        },
        "return": "Whether or not the transfer succeeded"
      }
    },
    "title": "Compound's CErc20 Contract"
  },
  "userdoc": {
    "methods": {
      "_acceptAdmin()": {
        "notice": "Accepts transfer of admin rights. msg.sender must be pendingAdmin"
      },
      "_addReserves(uint256)": {
        "notice": "The sender adds to reserves."
      },
      "_reduceReserves(uint256)": {
        "notice": "Accrues interest and reduces reserves by transferring to admin"
      },
      "_setComptroller(address)": {
        "notice": "Sets a new comptroller for the market"
      },
      "_setInterestRateModel(address)": {
        "notice": "accrues interest and updates the interest rate model using _setInterestRateModelFresh"
      },
      "_setPendingAdmin(address)": {
        "notice": "Begins transfer of admin rights. The newPendingAdmin must call `_acceptAdmin` to finalize the transfer."
      },
      "_setReserveFactor(uint256)": {
        "notice": "accrues interest and sets a new reserve factor for the protocol using _setReserveFactorFresh"
      },
      "accrueInterest()": {
        "notice": "Applies accrued interest to total borrows and reserves"
      },
      "allowance(address,address)": {
        "notice": "Get the current allowance from `owner` for `spender`"
      },
      "approve(address,uint256)": {
        "notice": "Approve `spender` to transfer up to `amount` from `src`"
      },
      "balanceOf(address)": {
        "notice": "Get the token balance of the `owner`"
      },
      "balanceOfUnderlying(address)": {
        "notice": "Get the underlying balance of the `owner`"
      },
      "borrow(uint256)": {
        "notice": "Sender borrows assets from the protocol to their own address"
      },
      "borrowBalanceCurrent(address)": {
        "notice": "Accrue interest to updated borrowIndex and then calculate        account's borrow balance using the updated borrowIndex"
      },
      "borrowBalanceStored(address)": {
        "notice": "Return the borrow balance of account based on stored data"
      },
      "borrowRatePerBlock()": {
        "notice": "Returns the current per-block borrow interest rate for this cToken"
      },
      "exchangeRateCurrent()": {
        "notice": "Accrue interest then return the up-to-date exchange rate"
      },
      "exchangeRateStored()": {
        "notice": "Calculates the exchange rate from the underlying to the CToken"
      },
      "getAccountSnapshot(address)": {
        "notice": "Get a snapshot of the account's balances, and the cached exchange rate"
      },
      "getCash()": {
        "notice": "Get cash balance of this cToken in the underlying asset"
      },
      "initialize(address,address,address,uint256,string,string,uint8)": {
        "notice": "Initialize the new money market"
      },
      "initialize(address,address,uint256,string,string,uint8)": {
        "notice": "Initialize the money market"
      },
      "liquidateBorrow(address,uint256,address)": {
        "notice": "The sender liquidates the borrowers collateral. The collateral seized is transferred to the liquidator."
      },
      "mint(uint256)": {
        "notice": "Sender supplies assets into the market and receives cTokens in exchange"
      },
      "redeem(uint256)": {
        "notice": "Sender redeems cTokens in exchange for the underlying asset"
      },
      "redeemUnderlying(uint256)": {
        "notice": "Sender redeems cTokens in exchange for a specified amount of underlying asset"
      },
      "repayBorrow(uint256)": {
        "notice": "Sender repays their own borrow"
      },
      "repayBorrowBehalf(address,uint256)": {
        "notice": "Sender repays a borrow belonging to borrower"
      },
      "seize(address,address,uint256)": {
        "notice": "Transfers collateral tokens (this market) to the liquidator."
      },
      "supplyRatePerBlock()": {
        "notice": "Returns the current per-block supply interest rate for this cToken"
      },
      "totalBorrowsCurrent()": {
        "notice": "Returns the current total borrows plus accrued interest"
      },
      "transfer(address,uint256)": {
        "notice": "Transfer `amount` tokens from `msg.sender` to `dst`"
      },
      "transferFrom(address,address,uint256)": {
        "notice": "Transfer `amount` tokens from `src` to `dst`"
      }
    },
    "notice": "CTokens which wrap an EIP-20 underlying"
  }
}