{
  "contractName": "CNative",
  "abi": [
    {
      "constant": true,
      "inputs": [],
      "name": "name",
      "outputs": [
        {
          "name": "",
          "type": "string"
        }
      ],
      "payable": false,
      "stateMutability": "view",
      "type": "function"
    },
    {
      "constant": false,
      "inputs": [
        {
          "name": "spender",
          "type": "address"
        },
        {
          "name": "amount",
          "type": "uint256"
        }
      ],
      "name": "approve",
      "outputs": [
        {
          "name": "",
          "type": "bool"
        }
      ],
      "payable": false,
      "stateMutability": "nonpayable",
      "type": "function"
    },
    {
      "constant": true,
      "inputs": [],
      "name": "reserveFactorMantissa",
      "outputs": [
        {
          "name": "",
          "type": "uint256"
        }
      ],
      "payable": false,
      "stateMutability": "view",
      "type": "function"
    },
    {
      "constant": false,
      "inputs": [
        {
          "name": "account",
          "type": "address"
        }
      ],
      "name": "borrowBalanceCurrent",
      "outputs": [
        {
          "name": "",
          "type": "uint256"
        }
      ],
      "payable": false,
      "stateMutability": "nonpayable",
      "type": "function"
    },
    {
      "constant": true,
      "inputs": [],
      "name": "totalSupply",
      "outputs": [
        {
          "name": "",
          "type": "uint256"
        }
      ],
      "payable": false,
      "stateMutability": "view",
      "type": "function"
    },
    {
      "constant": true,
      "inputs": [],
      "name": "exchangeRateStored",
      "outputs": [
        {
          "name": "",
          "type": "uint256"
        }
      ],
      "payable": false,
      "stateMutability": "view",
      "type": "function"
    },
    {
      "constant": false,
      "inputs": [
        {
          "name": "src",
          "type": "address"
        },
        {
          "name": "dst",
          "type": "address"
        },
        {
          "name": "amount",
          "type": "uint256"
        }
      ],
      "name": "transferFrom",
      "outputs": [
        {
          "name": "",
          "type": "bool"
        }
      ],
      "payable": false,
      "stateMutability": "nonpayable",
      "type": "function"
    },
    {
      "constant": true,
      "inputs": [],
      "name": "pendingAdmin",
      "outputs": [
        {
          "name": "",
          "type": "address"
        }
      ],
      "payable": false,
      "stateMutability": "view",
      "type": "function"
    },
    {
      "constant": true,
      "inputs": [],
      "name": "decimals",
      "outputs": [
        {
          "name": "",
          "type": "uint8"
        }
      ],
      "payable": false,
      "stateMutability": "view",
      "type": "function"
    },
    {
      "constant": false,
      "inputs": [
        {
          "name": "owner",
          "type": "address"
        }
      ],
      "name": "balanceOfUnderlying",
      "outputs": [
        {
          "name": "",
          "type": "uint256"
        }
      ],
      "payable": false,
      "stateMutability": "nonpayable",
      "type": "function"
    },
    {
      "constant": true,
      "inputs": [],
      "name": "getCash",
      "outputs": [
        {
          "name": "",
          "type": "uint256"
        }
      ],
      "payable": false,
      "stateMutability": "view",
      "type": "function"
    },
    {
      "constant": true,
      "inputs": [
        {
          "name": "owner",
          "type": "address"
        }
      ],
      "name": "balanceOfUnderlyingView",
      "outputs": [
        {
          "name": "",
          "type": "uint256"
        }
      ],
      "payable": false,
      "stateMutability": "view",
      "type": "function"
    },
    {
      "constant": false,
      "inputs": [
        {
          "name": "newComptroller",
          "type": "address"
        }
      ],
      "name": "_setComptroller",
      "outputs": [
        {
          "name": "",
          "type": "uint256"
        }
      ],
      "payable": false,
      "stateMutability": "nonpayable",
      "type": "function"
    },
    {
      "constant": true,
      "inputs": [],
      "name": "totalBorrows",
      "outputs": [
        {
          "name": "",
          "type": "uint256"
        }
      ],
      "payable": false,
      "stateMutability": "view",
      "type": "function"
    },
    {
      "constant": false,
      "inputs": [
        {
          "name": "_address",
          "type": "address"
        }
      ],
      "name": "_setRiskControl",
      "outputs": [
        {
          "name": "",
          "type": "uint256"
        }
      ],
      "payable": false,
      "stateMutability": "nonpayable",
      "type": "function"
    },
    {
      "constant": false,
      "inputs": [
        {
          "name": "_receiver",
          "type": "address"
        },
        {
          "name": "_reserve",
          "type": "address"
        },
        {
          "name": "_amount",
          "type": "uint256"
        },
        {
          "name": "_params",
          "type": "bytes"
        }
      ],
      "name": "flashLoan",
      "outputs": [
        {
          "name": "",
          "type": "uint256"
        }
      ],
      "payable": false,
      "stateMutability": "nonpayable",
      "type": "function"
    },
    {
      "constant": false,
      "inputs": [
        {
          "name": "_borrowFee",
          "type": "uint256"
        }
      ],
      "name": "_setBorrowFeeFactorMantissa",
      "outputs": [
        {
          "name": "",
          "type": "uint256"
        }
      ],
      "payable": false,
      "stateMutability": "nonpayable",
      "type": "function"
    },
    {
      "constant": true,
      "inputs": [],
      "name": "comptroller",
      "outputs": [
        {
          "name": "",
          "type": "address"
        }
      ],
      "payable": false,
      "stateMutability": "view",
      "type": "function"
    },
    {
      "constant": false,
      "inputs": [
        {
          "name": "reduceAmount",
          "type": "uint256"
        }
      ],
      "name": "_reduceReserves",
      "outputs": [
        {
          "name": "",
          "type": "uint256"
        }
      ],
      "payable": false,
      "stateMutability": "nonpayable",
      "type": "function"
    },
    {
      "constant": true,
      "inputs": [],
      "name": "accrualBlockNumber",
      "outputs": [
        {
          "name": "",
          "type": "uint256"
        }
      ],
      "payable": false,
      "stateMutability": "view",
      "type": "function"
    },
    {
      "constant": true,
      "inputs": [],
      "name": "underlying",
      "outputs": [
        {
          "name": "",
          "type": "address"
        }
      ],
      "payable": false,
      "stateMutability": "view",
      "type": "function"
    },
    {
      "constant": true,
      "inputs": [
        {
          "name": "owner",
          "type": "address"
        }
      ],
      "name": "balanceOf",
      "outputs": [
        {
          "name": "",
          "type": "uint256"
        }
      ],
      "payable": false,
      "stateMutability": "view",
      "type": "function"
    },
    {
      "constant": false,
      "inputs": [],
      "name": "totalBorrowsCurrent",
      "outputs": [
        {
          "name": "",
          "type": "uint256"
        }
      ],
      "payable": false,
      "stateMutability": "nonpayable",
      "type": "function"
    },
    {
      "constant": true,
      "inputs": [],
      "name": "totalReserves",
      "outputs": [
        {
          "name": "",
          "type": "uint256"
        }
      ],
      "payable": false,
      "stateMutability": "view",
      "type": "function"
    },
    {
      "constant": true,
      "inputs": [],
      "name": "symbol",
      "outputs": [
        {
          "name": "",
          "type": "string"
        }
      ],
      "payable": false,
      "stateMutability": "view",
      "type": "function"
    },
    {
      "constant": true,
      "inputs": [
        {
          "name": "account",
          "type": "address"
        }
      ],
      "name": "borrowBalanceStored",
      "outputs": [
        {
          "name": "",
          "type": "uint256"
        }
      ],
      "payable": false,
      "stateMutability": "view",
      "type": "function"
    },
    {
      "constant": true,
      "inputs": [],
      "name": "redeemFee",
      "outputs": [
        {
          "name": "",
          "type": "uint256"
        }
      ],
      "payable": false,
      "stateMutability": "view",
      "type": "function"
    },
    {
      "constant": false,
      "inputs": [
        {
          "name": "comptroller_",
          "type": "address"
        },
        {
          "name": "interestRateModel_",
          "type": "address"
        },
        {
          "name": "initialExchangeRateMantissa_",
          "type": "uint256"
        },
        {
          "name": "name_",
          "type": "string"
        },
        {
          "name": "symbol_",
          "type": "string"
        },
        {
          "name": "decimals_",
          "type": "uint8"
        }
      ],
      "name": "initialize",
      "outputs": [],
      "payable": false,
      "stateMutability": "nonpayable",
      "type": "function"
    },
    {
      "constant": false,
      "inputs": [
        {
          "name": "_redeemFee",
          "type": "uint256"
        }
      ],
      "name": "_setRedeemFeeFactorMantissa",
      "outputs": [
        {
          "name": "",
          "type": "uint256"
        }
      ],
      "payable": false,
      "stateMutability": "nonpayable",
      "type": "function"
    },
    {
      "constant": false,
      "inputs": [],
      "name": "accrueInterest",
      "outputs": [
        {
          "name": "",
          "type": "uint256"
        }
      ],
      "payable": false,
      "stateMutability": "nonpayable",
      "type": "function"
    },
    {
      "constant": false,
      "inputs": [
        {
          "name": "dst",
          "type": "address"
        },
        {
          "name": "amount",
          "type": "uint256"
        }
      ],
      "name": "transfer",
      "outputs": [
        {
          "name": "",
          "type": "bool"
        }
      ],
      "payable": false,
      "stateMutability": "nonpayable",
      "type": "function"
    },
    {
      "constant": false,
      "inputs": [
        {
          "name": "_feeManager",
          "type": "address"
        }
      ],
      "name": "_setFeeManager",
      "outputs": [
        {
          "name": "",
          "type": "uint256"
        }
      ],
      "payable": false,
      "stateMutability": "nonpayable",
      "type": "function"
    },
    {
      "constant": true,
      "inputs": [],
      "name": "borrowIndex",
      "outputs": [
        {
          "name": "",
          "type": "uint256"
        }
      ],
      "payable": false,
      "stateMutability": "view",
      "type": "function"
    },
    {
      "constant": true,
      "inputs": [],
      "name": "supplyRatePerBlock",
      "outputs": [
        {
          "name": "",
          "type": "uint256"
        }
      ],
      "payable": false,
      "stateMutability": "view",
      "type": "function"
    },
    {
      "constant": false,
      "inputs": [
        {
          "name": "liquidator",
          "type": "address"
        },
        {
          "name": "borrower",
          "type": "address"
        },
        {
          "name": "seizeTokens",
          "type": "uint256"
        }
      ],
      "name": "seize",
      "outputs": [
        {
          "name": "",
          "type": "uint256"
        }
      ],
      "payable": false,
      "stateMutability": "nonpayable",
      "type": "function"
    },
    {
      "constant": false,
      "inputs": [
        {
          "name": "newPendingAdmin",
          "type": "address"
        }
      ],
      "name": "_setPendingAdmin",
      "outputs": [
        {
          "name": "",
          "type": "uint256"
        }
      ],
      "payable": false,
      "stateMutability": "nonpayable",
      "type": "function"
    },
    {
      "constant": false,
      "inputs": [],
      "name": "exchangeRateCurrent",
      "outputs": [
        {
          "name": "",
          "type": "uint256"
        }
      ],
      "payable": false,
      "stateMutability": "nonpayable",
      "type": "function"
    },
    {
      "constant": true,
      "inputs": [
        {
          "name": "account",
          "type": "address"
        }
      ],
      "name": "getAccountSnapshot",
      "outputs": [
        {
          "name": "",
          "type": "uint256"
        },
        {
          "name": "",
          "type": "uint256"
        },
        {
          "name": "",
          "type": "uint256"
        },
        {
          "name": "",
          "type": "uint256"
        }
      ],
      "payable": false,
      "stateMutability": "view",
      "type": "function"
    },
    {
      "constant": true,
      "inputs": [],
      "name": "feeManager",
      "outputs": [
        {
          "name": "",
          "type": "address"
        }
      ],
      "payable": false,
      "stateMutability": "view",
      "type": "function"
    },
    {
      "constant": true,
      "inputs": [
        {
          "name": "owner",
          "type": "address"
        },
        {
          "name": "spender",
          "type": "address"
        }
      ],
      "name": "allowance",
      "outputs": [
        {
          "name": "",
          "type": "uint256"
        }
      ],
      "payable": false,
      "stateMutability": "view",
      "type": "function"
    },
    {
      "constant": true,
      "inputs": [],
      "name": "borrowFee",
      "outputs": [
        {
          "name": "",
          "type": "uint256"
        }
      ],
      "payable": false,
      "stateMutability": "view",
      "type": "function"
    },
    {
      "constant": false,
      "inputs": [],
      "name": "_acceptAdmin",
      "outputs": [
        {
          "name": "",
          "type": "uint256"
        }
      ],
      "payable": false,
      "stateMutability": "nonpayable",
      "type": "function"
    },
    {
      "constant": false,
      "inputs": [
        {
          "name": "newInterestRateModel",
          "type": "address"
        }
      ],
      "name": "_setInterestRateModel",
      "outputs": [
        {
          "name": "",
          "type": "uint256"
        }
      ],
      "payable": false,
      "stateMutability": "nonpayable",
      "type": "function"
    },
    {
      "constant": true,
      "inputs": [],
      "name": "interestRateModel",
      "outputs": [
        {
          "name": "",
          "type": "address"
        }
      ],
      "payable": false,
      "stateMutability": "view",
      "type": "function"
    },
    {
      "constant": true,
      "inputs": [],
      "name": "admin",
      "outputs": [
        {
          "name": "",
          "type": "address"
        }
      ],
      "payable": false,
      "stateMutability": "view",
      "type": "function"
    },
    {
      "constant": true,
      "inputs": [],
      "name": "borrowRatePerBlock",
      "outputs": [
        {
          "name": "",
          "type": "uint256"
        }
      ],
      "payable": false,
      "stateMutability": "view",
      "type": "function"
    },
    {
      "constant": true,
      "inputs": [],
      "name": "riskControl",
      "outputs": [
        {
          "name": "",
          "type": "address"
        }
      ],
      "payable": false,
      "stateMutability": "view",
      "type": "function"
    },
    {
      "constant": false,
      "inputs": [
        {
          "name": "newReserveFactorMantissa",
          "type": "uint256"
        }
      ],
      "name": "_setReserveFactor",
      "outputs": [
        {
          "name": "",
          "type": "uint256"
        }
      ],
      "payable": false,
      "stateMutability": "nonpayable",
      "type": "function"
    },
    {
      "constant": true,
      "inputs": [],
      "name": "isCToken",
      "outputs": [
        {
          "name": "",
          "type": "bool"
        }
      ],
      "payable": false,
      "stateMutability": "view",
      "type": "function"
    },
    {
      "inputs": [
        {
          "name": "comptroller_",
          "type": "address"
        },
        {
          "name": "interestRateModel_",
          "type": "address"
        },
        {
          "name": "initialExchangeRateMantissa_",
          "type": "uint256"
        },
        {
          "name": "name_",
          "type": "string"
        },
        {
          "name": "symbol_",
          "type": "string"
        },
        {
          "name": "decimals_",
          "type": "uint8"
        },
        {
          "name": "admin_",
          "type": "address"
        }
      ],
      "payable": false,
      "stateMutability": "nonpayable",
      "type": "constructor"
    },
    {
      "payable": true,
      "stateMutability": "payable",
      "type": "fallback"
    },
    {
      "anonymous": false,
      "inputs": [
        {
          "indexed": false,
          "name": "error",
          "type": "uint256"
        },
        {
          "indexed": false,
          "name": "info",
          "type": "uint256"
        },
        {
          "indexed": false,
          "name": "detail",
          "type": "uint256"
        }
      ],
      "name": "Failure",
      "type": "event"
    },
    {
      "anonymous": false,
      "inputs": [
        {
          "indexed": false,
          "name": "cashPrior",
          "type": "uint256"
        },
        {
          "indexed": false,
          "name": "interestAccumulated",
          "type": "uint256"
        },
        {
          "indexed": false,
          "name": "borrowIndex",
          "type": "uint256"
        },
        {
          "indexed": false,
          "name": "totalBorrows",
          "type": "uint256"
        }
      ],
      "name": "AccrueInterest",
      "type": "event"
    },
    {
      "anonymous": false,
      "inputs": [
        {
          "indexed": false,
          "name": "minter",
          "type": "address"
        },
        {
          "indexed": false,
          "name": "mintAmount",
          "type": "uint256"
        },
        {
          "indexed": false,
          "name": "mintTokens",
          "type": "uint256"
        }
      ],
      "name": "Mint",
      "type": "event"
    },
    {
      "anonymous": false,
      "inputs": [
        {
          "indexed": false,
          "name": "redeemer",
          "type": "address"
        },
        {
          "indexed": false,
          "name": "redeemAmount",
          "type": "uint256"
        },
        {
          "indexed": false,
          "name": "redeemTokens",
          "type": "uint256"
        }
      ],
      "name": "Redeem",
      "type": "event"
    },
    {
      "anonymous": false,
      "inputs": [
        {
          "indexed": false,
          "name": "borrower",
          "type": "address"
        },
        {
          "indexed": false,
          "name": "borrowAmount",
          "type": "uint256"
        },
        {
          "indexed": false,
          "name": "accountBorrows",
          "type": "uint256"
        },
        {
          "indexed": false,
          "name": "totalBorrows",
          "type": "uint256"
        }
      ],
      "name": "Borrow",
      "type": "event"
    },
    {
      "anonymous": false,
      "inputs": [
        {
          "indexed": false,
          "name": "payer",
          "type": "address"
        },
        {
          "indexed": false,
          "name": "borrower",
          "type": "address"
        },
        {
          "indexed": false,
          "name": "repayAmount",
          "type": "uint256"
        },
        {
          "indexed": false,
          "name": "accountBorrows",
          "type": "uint256"
        },
        {
          "indexed": false,
          "name": "totalBorrows",
          "type": "uint256"
        }
      ],
      "name": "RepayBorrow",
      "type": "event"
    },
    {
      "anonymous": false,
      "inputs": [
        {
          "indexed": false,
          "name": "liquidator",
          "type": "address"
        },
        {
          "indexed": false,
          "name": "borrower",
          "type": "address"
        },
        {
          "indexed": false,
          "name": "repayAmount",
          "type": "uint256"
        },
        {
          "indexed": false,
          "name": "cTokenCollateral",
          "type": "address"
        },
        {
          "indexed": false,
          "name": "seizeTokens",
          "type": "uint256"
        }
      ],
      "name": "LiquidateBorrow",
      "type": "event"
    },
    {
      "anonymous": false,
      "inputs": [
        {
          "indexed": false,
          "name": "oldPendingAdmin",
          "type": "address"
        },
        {
          "indexed": false,
          "name": "newPendingAdmin",
          "type": "address"
        }
      ],
      "name": "NewPendingAdmin",
      "type": "event"
    },
    {
      "anonymous": false,
      "inputs": [
        {
          "indexed": false,
          "name": "oldAdmin",
          "type": "address"
        },
        {
          "indexed": false,
          "name": "newAdmin",
          "type": "address"
        }
      ],
      "name": "NewAdmin",
      "type": "event"
    },
    {
      "anonymous": false,
      "inputs": [
        {
          "indexed": false,
          "name": "oldComptroller",
          "type": "address"
        },
        {
          "indexed": false,
          "name": "newComptroller",
          "type": "address"
        }
      ],
      "name": "NewComptroller",
      "type": "event"
    },
    {
      "anonymous": false,
      "inputs": [
        {
          "indexed": false,
          "name": "oldInterestRateModel",
          "type": "address"
        },
        {
          "indexed": false,
          "name": "newInterestRateModel",
          "type": "address"
        }
      ],
      "name": "NewMarketInterestRateModel",
      "type": "event"
    },
    {
      "anonymous": false,
      "inputs": [
        {
          "indexed": false,
          "name": "oldReserveFactorMantissa",
          "type": "uint256"
        },
        {
          "indexed": false,
          "name": "newReserveFactorMantissa",
          "type": "uint256"
        }
      ],
      "name": "NewReserveFactor",
      "type": "event"
    },
    {
      "anonymous": false,
      "inputs": [
        {
          "indexed": false,
          "name": "benefactor",
          "type": "address"
        },
        {
          "indexed": false,
          "name": "addAmount",
          "type": "uint256"
        },
        {
          "indexed": false,
          "name": "newTotalReserves",
          "type": "uint256"
        }
      ],
      "name": "ReservesAdded",
      "type": "event"
    },
    {
      "anonymous": false,
      "inputs": [
        {
          "indexed": false,
          "name": "admin",
          "type": "address"
        },
        {
          "indexed": false,
          "name": "reduceAmount",
          "type": "uint256"
        },
        {
          "indexed": false,
          "name": "newTotalReserves",
          "type": "uint256"
        }
      ],
      "name": "ReservesReduced",
      "type": "event"
    },
    {
      "anonymous": false,
      "inputs": [
        {
          "indexed": true,
          "name": "from",
          "type": "address"
        },
        {
          "indexed": true,
          "name": "to",
          "type": "address"
        },
        {
          "indexed": false,
          "name": "amount",
          "type": "uint256"
        }
      ],
      "name": "Transfer",
      "type": "event"
    },
    {
      "anonymous": false,
      "inputs": [
        {
          "indexed": true,
          "name": "owner",
          "type": "address"
        },
        {
          "indexed": true,
          "name": "spender",
          "type": "address"
        },
        {
          "indexed": false,
          "name": "amount",
          "type": "uint256"
        }
      ],
      "name": "Approval",
      "type": "event"
    },
    {
      "anonymous": false,
      "inputs": [
        {
          "indexed": true,
          "name": "_target",
          "type": "address"
        },
        {
          "indexed": true,
          "name": "_reserve",
          "type": "address"
        },
        {
          "indexed": true,
          "name": "_cToken",
          "type": "address"
        },
        {
          "indexed": false,
          "name": "_amount",
          "type": "uint256"
        },
        {
          "indexed": false,
          "name": "_totalFee",
          "type": "uint256"
        },
        {
          "indexed": false,
          "name": "_timestamp",
          "type": "uint256"
        }
      ],
      "name": "FlashLoan",
      "type": "event"
    },
    {
      "constant": false,
      "inputs": [],
      "name": "mint",
      "outputs": [],
      "payable": true,
      "stateMutability": "payable",
      "type": "function"
    },
    {
      "constant": false,
      "inputs": [
        {
          "name": "redeemTokens",
          "type": "uint256"
        }
      ],
      "name": "redeem",
      "outputs": [
        {
          "name": "",
          "type": "uint256"
        }
      ],
      "payable": false,
      "stateMutability": "nonpayable",
      "type": "function"
    },
    {
      "constant": false,
      "inputs": [
        {
          "name": "redeemAmount",
          "type": "uint256"
        }
      ],
      "name": "redeemUnderlying",
      "outputs": [
        {
          "name": "",
          "type": "uint256"
        }
      ],
      "payable": false,
      "stateMutability": "nonpayable",
      "type": "function"
    },
    {
      "constant": false,
      "inputs": [
        {
          "name": "borrowAmount",
          "type": "uint256"
        }
      ],
      "name": "borrow",
      "outputs": [
        {
          "name": "",
          "type": "uint256"
        }
      ],
      "payable": false,
      "stateMutability": "nonpayable",
      "type": "function"
    },
    {
      "constant": false,
      "inputs": [],
      "name": "repayBorrow",
      "outputs": [],
      "payable": true,
      "stateMutability": "payable",
      "type": "function"
    },
    {
      "constant": false,
      "inputs": [
        {
          "name": "borrower",
          "type": "address"
        }
      ],
      "name": "repayBorrowBehalf",
      "outputs": [],
      "payable": true,
      "stateMutability": "payable",
      "type": "function"
    },
    {
      "constant": false,
      "inputs": [
        {
          "name": "borrower",
          "type": "address"
        },
        {
          "name": "cTokenCollateral",
          "type": "address"
        }
      ],
      "name": "liquidateBorrow",
      "outputs": [],
      "payable": true,
      "stateMutability": "payable",
      "type": "function"
    }
  ],
  "bytecode": "0x6080604052600060065560006007553480156200001b57600080fd5b506040516200655838038062006558833981810160405260e08110156200004157600080fd5b81516020830151604084015160608501805193959294919391830192916401000000008111156200007157600080fd5b820160208101848111156200008557600080fd5b8151640100000000811182820187101715620000a057600080fd5b50509291906020018051640100000000811115620000bd57600080fd5b82016020810184811115620000d157600080fd5b8151640100000000811182820187101715620000ec57600080fd5b50506020820151604090920151600480546001600160a01b031916331790559093509091506200012a8787878787876001600160e01b036200018916565b600480546001600160a01b0319166001600160a01b0383161790556200015b62000437602090811b620058a817901c565b600080546001600160a01b0319166001600160a01b039290921691909117905550620008b795505050505050565b6004546001600160a01b03163314620001ee576040517f08c379a0000000000000000000000000000000000000000000000000000000008152600401808060200182810382526024815260200180620064bf6024913960400191505060405180910390fd5b600d54158015620001ff5750600e54155b62000256576040517f08c379a0000000000000000000000000000000000000000000000000000000008152600401808060200182810382526023815260200180620064e36023913960400191505060405180910390fd5b600b84905583620002b3576040517f08c379a0000000000000000000000000000000000000000000000000000000008152600401808060200182810382526030815260200180620065066030913960400191505060405180910390fd5b6000620002c9876001600160e01b036200045016565b905080156200033957604080517f08c379a000000000000000000000000000000000000000000000000000000000815260206004820152601a60248201527f73657474696e6720636f6d7074726f6c6c6572206661696c6564000000000000604482015290519081900360640190fd5b6200034c6001600160e01b03620005e616565b600d55670de0b6b3a7640000600e556200036f866001600160e01b03620005ea16565b90508015620003ca576040517f08c379a0000000000000000000000000000000000000000000000000000000008152600401808060200182810382526022815260200180620065366022913960400191505060405180910390fd5b8351620003df90600190602087019062000815565b508251620003f590600290602086019062000815565b50506003805460ff90921660ff1990921691909117905550506000805460ff60a01b191674010000000000000000000000000000000000000000179055505050565b73eeeeeeeeeeeeeeeeeeeeeeeeeeeeeeeeeeeeeeee5b90565b6004546000906001600160a01b0316331462000485576200047d6001603f6001600160e01b03620007a516565b9050620005e1565b600954604080517e7e3dd200000000000000000000000000000000000000000000000000000000815290516001600160a01b0392831692851691627e3dd2916004808301926020929190829003018186803b158015620004e457600080fd5b505afa158015620004f9573d6000803e3d6000fd5b505050506040513d60208110156200051057600080fd5b50516200057e57604080517f08c379a000000000000000000000000000000000000000000000000000000000815260206004820152601c60248201527f6d61726b6572206d6574686f642072657475726e65642066616c736500000000604482015290519081900360640190fd5b600980546001600160a01b0319166001600160a01b03858116918217909255604080519284168352602083019190915280517f7ac369dbd14fa5ea3f473ed67cc9d598964a77501540ba6751eb0b3decf5870d9281900390910190a160005b9150505b919050565b4390565b60045460009081906001600160a01b03163314620006225762000619600160426001600160e01b03620007a516565b915050620005e1565b620006356001600160e01b03620005e616565b600d5414620006555762000619600a60416001600160e01b03620007a516565b600a60009054906101000a90046001600160a01b03169050826001600160a01b0316632191f92a6040518163ffffffff1660e01b815260040160206040518083038186803b158015620006a757600080fd5b505afa158015620006bc573d6000803e3d6000fd5b505050506040513d6020811015620006d357600080fd5b50516200074157604080517f08c379a000000000000000000000000000000000000000000000000000000000815260206004820152601c60248201527f6d61726b6572206d6574686f642072657475726e65642066616c736500000000604482015290519081900360640190fd5b600a80546001600160a01b0319166001600160a01b03858116918217909255604080519284168352602083019190915280517fedffc32e068c7c95dfd4bdfd5c4d939a084d6b11c4199eac8436ed234d72f9269281900390910190a16000620005dd565b60007f45b96fe442630264581b197e84bbada861235052c5a1aadfff9ea4e40a969aa0836011811115620007d557fe5b836050811115620007e257fe5b604080519283526020830191909152600082820152519081900360600190a18260118111156200080e57fe5b9392505050565b828054600181600116156101000203166002900490600052602060002090601f016020900481019282601f106200085857805160ff191683800117855562000888565b8280016001018555821562000888579182015b82811115620008885782518255916020019190600101906200086b565b50620008969291506200089a565b5090565b6200044d91905b80821115620008965760008155600101620008a1565b615bf880620008c76000396000f3fe60806040526004361061036b5760003560e01c806395dd9193116101c6578063c5ebeaec116100f7578063f2b3abbd11610095578063f8f9da281161006f578063f8f9da2814610d8c578063f965a54214610da1578063fca7820b14610db6578063fe9c44ae14610de05761036b565b8063f2b3abbd14610d2f578063f3fdb15a14610d62578063f851a44014610d775761036b565b8063dd62ed3e116100d1578063dd62ed3e14610ca4578063e597461914610cdf578063e626648a14610d05578063e9c714f214610d1a5761036b565b8063c5ebeaec14610c3b578063d0fb020314610c65578063db006a7514610c7a5761036b565b8063aa5af0fd11610164578063b2a02ff11161013e578063b2a02ff114610b57578063b71d1a0c14610b9a578063bd6d894d14610bcd578063c37f68e214610be25761036b565b8063aa5af0fd14610aff578063aae40a2a14610b14578063ae9d70b014610b425761036b565b8063a50c40ca116101a0578063a50c40ca14610a54578063a6afed9514610a7e578063a9059cbb14610a93578063a9b768e814610acc5761036b565b806395dd9193146108ad578063965fa21e146108e057806399d8c1b4146108f55761036b565b806347bd3718116102a05780636c540baf1161023e57806373acee981161021857806373acee9814610844578063852a12e3146108595780638f840ddd1461088357806395d89b41146108985761036b565b80636c540baf146107e75780636f307dc3146107fc57806370a08231146108115761036b565b80635cffe9de1161027a5780635cffe9de146106ab5780635e9ee52f1461077e5780635fe3b567146107a8578063601a0bf1146107bd5761036b565b806347bd37181461065b5780634e4d9fea146106705780635782a6f2146106785761036b565b806323b872dd1161030d5780633af9e669116102e75780633af9e669146105ad5780633b1d21a2146105e0578063439d3ee7146105f55780634576b5db146106285761036b565b806323b872dd1461050e5780632678224714610551578063313ce567146105825761036b565b8063173b990411610349578063173b99041461048a57806317bfdfbc146104b157806318160ddd146104e4578063182df0f5146104f95761036b565b806306fdde03146103a9578063095ea7b3146104335780631249c58b14610480575b600061037634610df5565b5090506103a6816040518060400160405280600b81526020016a1b5a5b9d0819985a5b195960aa1b815250610f8d565b50005b3480156103b557600080fd5b506103be61118d565b6040805160208082528351818301528351919283929083019185019080838360005b838110156103f85781810151838201526020016103e0565b50505050905090810190601f1680156104255780820380516001836020036101000a031916815260200191505b509250505060405180910390f35b34801561043f57600080fd5b5061046c6004803603604081101561045657600080fd5b506001600160a01b03813516906020013561121a565b604080519115158252519081900360200190f35b610488611287565b005b34801561049657600080fd5b5061049f6112c5565b60408051918252519081900360200190f35b3480156104bd57600080fd5b5061049f600480360360208110156104d457600080fd5b50356001600160a01b03166112cb565b3480156104f057600080fd5b5061049f61139b565b34801561050557600080fd5b5061049f6113a1565b34801561051a57600080fd5b5061046c6004803603606081101561053157600080fd5b506001600160a01b03813581169160208101359091169060400135611404565b34801561055d57600080fd5b50610566611486565b604080516001600160a01b039092168252519081900360200190f35b34801561058e57600080fd5b50610597611495565b6040805160ff9092168252519081900360200190f35b3480156105b957600080fd5b5061049f600480360360208110156105d057600080fd5b50356001600160a01b031661149e565b3480156105ec57600080fd5b5061049f611556565b34801561060157600080fd5b5061049f6004803603602081101561061857600080fd5b50356001600160a01b0316611565565b34801561063457600080fd5b5061049f6004803603602081101561064b57600080fd5b50356001600160a01b0316611582565b34801561066757600080fd5b5061049f6116d2565b6104886116d8565b34801561068457600080fd5b5061049f6004803603602081101561069b57600080fd5b50356001600160a01b031661171a565b3480156106b757600080fd5b5061049f600480360360808110156106ce57600080fd5b6001600160a01b0382358116926020810135909116916040820135919081019060808101606082013564010000000081111561070957600080fd5b82018360208201111561071b57600080fd5b8035906020019184600183028401116401000000008311171561073d57600080fd5b91908080601f01602080910402602001604051908101604052809392919081815260200183838082843760009201919091525092955061178d945050505050565b34801561078a57600080fd5b5061049f600480360360208110156107a157600080fd5b5035611a56565b3480156107b457600080fd5b50610566611b04565b3480156107c957600080fd5b5061049f600480360360208110156107e057600080fd5b5035611b13565b3480156107f357600080fd5b5061049f611bbe565b34801561080857600080fd5b50610566611bc4565b34801561081d57600080fd5b5061049f6004803603602081101561083457600080fd5b50356001600160a01b0316611bd3565b34801561085057600080fd5b5061049f611bee565b34801561086557600080fd5b5061049f6004803603602081101561087c57600080fd5b5035611cb4565b34801561088f57600080fd5b5061049f611cbf565b3480156108a457600080fd5b506103be611cc5565b3480156108b957600080fd5b5061049f600480360360208110156108d057600080fd5b50356001600160a01b0316611d1d565b3480156108ec57600080fd5b5061049f611d7a565b34801561090157600080fd5b50610488600480360360c081101561091857600080fd5b6001600160a01b0382358116926020810135909116916040820135919081019060808101606082013564010000000081111561095357600080fd5b82018360208201111561096557600080fd5b8035906020019184600183028401116401000000008311171561098757600080fd5b91908080601f01602080910402602001604051908101604052809392919081815260200183838082843760009201919091525092959493602081019350359150506401000000008111156109da57600080fd5b8201836020820111156109ec57600080fd5b80359060200191846001830284011164010000000083111715610a0e57600080fd5b91908080601f0160208091040260200160405190810160405280939291908181526020018383808284376000920191909152509295505050903560ff169150611d809050565b348015610a6057600080fd5b5061049f60048036036020811015610a7757600080fd5b5035611f6c565b348015610a8a57600080fd5b5061049f61201a565b348015610a9f57600080fd5b5061046c60048036036040811015610ab657600080fd5b506001600160a01b038135169060200135612372565b348015610ad857600080fd5b5061049f60048036036020811015610aef57600080fd5b50356001600160a01b03166123f3565b348015610b0b57600080fd5b5061049f612463565b61048860048036036040811015610b2a57600080fd5b506001600160a01b0381358116916020013516612469565b348015610b4e57600080fd5b5061049f6124b6565b348015610b6357600080fd5b5061049f60048036036060811015610b7a57600080fd5b506001600160a01b03813581169160208101359091169060400135612555565b348015610ba657600080fd5b5061049f60048036036020811015610bbd57600080fd5b50356001600160a01b03166125d6565b348015610bd957600080fd5b5061049f61265d565b348015610bee57600080fd5b50610c1560048036036020811015610c0557600080fd5b50356001600160a01b0316612729565b604080519485526020850193909352838301919091526060830152519081900360800190f35b348015610c4757600080fd5b5061049f60048036036020811015610c5e57600080fd5b50356127be565b348015610c7157600080fd5b506105666127c9565b348015610c8657600080fd5b5061049f60048036036020811015610c9d57600080fd5b50356127d8565b348015610cb057600080fd5b5061049f60048036036040811015610cc757600080fd5b506001600160a01b03813581169160200135166127e3565b61048860048036036020811015610cf557600080fd5b50356001600160a01b031661280e565b348015610d1157600080fd5b5061049f61285c565b348015610d2657600080fd5b5061049f612862565b348015610d3b57600080fd5b5061049f60048036036020811015610d5257600080fd5b50356001600160a01b0316612951565b348015610d6e57600080fd5b5061056661298b565b348015610d8357600080fd5b5061056661299a565b348015610d9857600080fd5b5061049f6129a9565b348015610dad57600080fd5b50610566612a0d565b348015610dc257600080fd5b5061049f60048036036020811015610dd957600080fd5b5035612a21565b348015610dec57600080fd5b5061046c612aa9565b600080548190600160a01b900460ff16610e43576040805162461bcd60e51b815260206004820152600a6024820152691c994b595b9d195c995960b21b604482015290519081900360640190fd5b6000805460ff60a01b1916905560035461010090046001600160a01b031615610f2e57600354604080516315fbb7b760e31b8152306004820152336024820152905160009261010090046001600160a01b03169163afddbdb8916044808301926020929190829003018186803b158015610ebc57600080fd5b505afa158015610ed0573d6000803e3d6000fd5b505050506040513d6020811015610ee657600080fd5b505190508015610f2c576040805162461bcd60e51b815260206004820152600c60248201526b1c9a5cdac818dbdb9d1c9bdb60a21b604482015290519081900360640190fd5b505b6000610f3861201a565b90508015610f6357610f56816011811115610f4f57fe5b601e612aae565b925060009150610f739050565b610f6d3385612b14565b92509250505b6000805460ff60a01b1916600160a01b1790559092909150565b81610f9757611189565b606081516005016040519080825280601f01601f191660200182016040528015610fc8576020820181803883390190505b50905060005b825181101561101957828181518110610fe357fe5b602001015160f81c60f81b828281518110610ffa57fe5b60200101906001600160f81b031916908160001a905350600101610fce565b8151600160fd1b9083908390811061102d57fe5b60200101906001600160f81b031916908160001a905350602860f81b82826001018151811061105857fe5b60200101906001600160f81b031916908160001a905350600a840460300160f81b82826002018151811061108857fe5b60200101906001600160f81b031916908160001a905350600a840660300160f81b8282600301815181106110b857fe5b60200101906001600160f81b031916908160001a905350602960f81b8282600401815181106110e357fe5b60200101906001600160f81b031916908160001a9053508184156111855760405162461bcd60e51b81526004018080602001828103825283818151815260200191508051906020019080838360005b8381101561114a578181015183820152602001611132565b50505050905090810190601f1680156111775780820380516001836020036101000a031916815260200191505b509250505060405180910390fd5b5050505b5050565b60018054604080516020600284861615610100026000190190941693909304601f810184900484028201840190925281815292918301828280156112125780601f106111e757610100808354040283529160200191611212565b820191906000526020600020905b8154815290600101906020018083116111f557829003601f168201915b505050505081565b3360008181526013602090815260408083206001600160a01b03871680855290835281842086905581518681529151939493909284927f8c5be1e5ebec7d5bd14f71427d1e84f3dd0314c0f7b2291e5b200ac8c7c3b925929081900390910190a360019150505b92915050565b600061129234610df5565b5090506112c2816040518060400160405280600b81526020016a1b5a5b9d0819985a5b195960aa1b815250610f8d565b50565b600c5481565b60008054600160a01b900460ff16611317576040805162461bcd60e51b815260206004820152600a6024820152691c994b595b9d195c995960b21b604482015290519081900360640190fd5b6000805460ff60a01b1916815561132c61201a565b14611377576040805162461bcd60e51b81526020600482015260166024820152751858d8dc9d59481a5b9d195c995cdd0819985a5b195960521b604482015290519081900360640190fd5b61138082611d1d565b90505b6000805460ff60a01b1916600160a01b179055919050565b60115481565b60008060006113ae612f74565b909250905060008260038111156113c157fe5b146113fd5760405162461bcd60e51b8152600401808060200182810382526035815260200180615b0f6035913960400191505060405180910390fd5b9150505b90565b60008054600160a01b900460ff16611450576040805162461bcd60e51b815260206004820152600a6024820152691c994b595b9d195c995960b21b604482015290519081900360640190fd5b6000805460ff60a01b1916815561146933868686613023565b1490506000805460ff60a01b1916600160a01b1790559392505050565b6008546001600160a01b031681565b60035460ff1681565b60006114a8615750565b60405180602001604052806114bb61265d565b90526001600160a01b0384166000908152601260205260408120549192509081906114e7908490613333565b909250905060008260038111156114fa57fe5b1461154c576040805162461bcd60e51b815260206004820152601f60248201527f62616c616e636520636f756c64206e6f742062652063616c63756c6174656400604482015290519081900360640190fd5b925050505b919050565b6000611560613386565b905090565b600061156f615750565b60405180602001604052806114bb6113a1565b6004546000906001600160a01b031633146115aa576115a36001603f612aae565b9050611551565b60095460408051623f1ee960e11b815290516001600160a01b0392831692851691627e3dd2916004808301926020929190829003018186803b1580156115ef57600080fd5b505afa158015611603573d6000803e3d6000fd5b505050506040513d602081101561161957600080fd5b505161166c576040805162461bcd60e51b815260206004820152601c60248201527f6d61726b6572206d6574686f642072657475726e65642066616c736500000000604482015290519081900360640190fd5b600980546001600160a01b0319166001600160a01b03858116918217909255604080519284168352602083019190915280517f7ac369dbd14fa5ea3f473ed67cc9d598964a77501540ba6751eb0b3decf5870d9281900390910190a160005b9392505050565b600f5481565b60006116e3346133b2565b5090506112c281604051806040016040528060128152602001711c995c185e509bdc9c9bddc819985a5b195960721b815250610f8d565b6004546000906001600160a01b03163314611765576040805162461bcd60e51b815260206004820152600660248201526510b0b236b4b760d11b604482015290519081900360640190fd5b60038054610100600160a81b0319166101006001600160a01b03851602179055600092915050565b60008054600160a01b900460ff166117d9576040805162461bcd60e51b815260206004820152600a6024820152691c994b595b9d195c995960b21b604482015290519081900360640190fd5b6000805460ff60a01b191681556117ee613386565b90508381101561182f5760405162461bcd60e51b81526004018080602001828103825260318152602001806158e56031913960400191505060405180910390fd5b600061184761183f86600a61343e565b612710613480565b9050600081116118885760405162461bcd60e51b8152600401808060200182810382526032815260200180615a596032913960400191505060405180910390fd5b868061189481886134b3565b60405163405b019d60e01b81526001600160a01b03898116600483019081523060248401819052604484018b90526064840187905260a0608485019081528a5160a48601528a519387169463405b019d948e948e938b938f9360c490910190602085019080838360005b838110156119165781810151838201526020016118fe565b50505050905090810190601f1680156119435780820380516001836020036101000a031916815260200191505b509650505050505050600060405180830381600087803b15801561196657600080fd5b505af115801561197a573d6000803e3d6000fd5b505050506000611988613386565b905061199485856134e9565b8110156119d25760405162461bcd60e51b815260040180806020018281038252603281526020018061598b6032913960400191505060405180910390fd5b6119de601054856134e9565b6010556040805189815260208101869052428183015290516001600160a01b03808c16923092918e16917fc58f35ca649f2ebaf8f1189e10cb3c07d7255c417018d4002ad6dceb86d27e749181900360600190a46000955050505050506000805460ff60a01b1916600160a01b179055949350505050565b6004546000906001600160a01b03163314611aa1576040805162461bcd60e51b815260206004820152600660248201526510b0b236b4b760d11b604482015290519081900360640190fd5b600082118015611ab75750662386f26fc1000082105b611afb576040805162461bcd60e51b815260206004820152601060248201526f6265796f6e64207468652073636f706560801b604482015290519081900360640190fd5b50600755600090565b6009546001600160a01b031681565b60008054600160a01b900460ff16611b5f576040805162461bcd60e51b815260206004820152600a6024820152691c994b595b9d195c995960b21b604482015290519081900360640190fd5b6000805460ff60a01b19168155611b7461201a565b90508015611b9a57611b92816011811115611b8b57fe5b6030612aae565b915050611383565b611ba38361351f565b9150506000805460ff60a01b1916600160a01b179055919050565b600d5481565b6000546001600160a01b031681565b6001600160a01b031660009081526012602052604090205490565b60008054600160a01b900460ff16611c3a576040805162461bcd60e51b815260206004820152600a6024820152691c994b595b9d195c995960b21b604482015290519081900360640190fd5b6000805460ff60a01b19168155611c4f61201a565b14611c9a576040805162461bcd60e51b81526020600482015260166024820152751858d8dc9d59481a5b9d195c995cdd0819985a5b195960521b604482015290519081900360640190fd5b50600f546000805460ff60a01b1916600160a01b17905590565b600061128182613643565b60105481565b6002805460408051602060018416156101000260001901909316849004601f810184900484028201840190925281815292918301828280156112125780601f106111e757610100808354040283529160200191611212565b6000806000611d2b846136ce565b90925090506000826003811115611d3e57fe5b146116cb5760405162461bcd60e51b81526004018080602001828103825260378152602001806159e86037913960400191505060405180910390fd5b60065481565b6004546001600160a01b03163314611dc95760405162461bcd60e51b81526004018080602001828103825260248152602001806158c16024913960400191505060405180910390fd5b600d54158015611dd95750600e54155b611e145760405162461bcd60e51b81526004018080602001828103825260238152602001806159166023913960400191505060405180910390fd5b600b84905583611e555760405162461bcd60e51b81526004018080602001828103825260308152602001806159396030913960400191505060405180910390fd5b6000611e6087611582565b90508015611eb5576040805162461bcd60e51b815260206004820152601a60248201527f73657474696e6720636f6d7074726f6c6c6572206661696c6564000000000000604482015290519081900360640190fd5b611ebd613782565b600d55670de0b6b3a7640000600e55611ed586613786565b90508015611f145760405162461bcd60e51b81526004018080602001828103825260228152602001806159696022913960400191505060405180910390fd5b8351611f27906001906020870190615763565b508251611f3b906002906020860190615763565b50506003805460ff90921660ff1990921691909117905550506000805460ff60a01b1916600160a01b179055505050565b6004546000906001600160a01b03163314611fb7576040805162461bcd60e51b815260206004820152600660248201526510b0b236b4b760d11b604482015290519081900360640190fd5b600082118015611fcd5750662386f26fc1000082105b612011576040805162461bcd60e51b815260206004820152601060248201526f6265796f6e64207468652073636f706560801b604482015290519081900360640190fd5b50600655600090565b600080612025613782565b600d549091508082141561203e57600092505050611401565b6000612048613386565b600f54601054600e54600a54604080516315f2405360e01b815260048101879052602481018690526044810185905290519596509394929391926000926001600160a01b03909216916315f24053916064808301926020929190829003018186803b1580156120b657600080fd5b505afa1580156120ca573d6000803e3d6000fd5b505050506040513d60208110156120e057600080fd5b5051905065048c2739500081111561213f576040805162461bcd60e51b815260206004820152601c60248201527f626f72726f772072617465206973206162737572646c79206869676800000000604482015290519081900360640190fd5b60008061214c89896138f6565b9092509050600082600381111561215f57fe5b146121b1576040805162461bcd60e51b815260206004820152601f60248201527f636f756c64206e6f742063616c63756c61746520626c6f636b2064656c746100604482015290519081900360640190fd5b6121b9615750565b6000806000806121d760405180602001604052808a81525087613919565b909750945060008760038111156121ea57fe5b1461221c576122076009600689600381111561220257fe5b613981565b9e505050505050505050505050505050611401565b612226858c613333565b9097509350600087600381111561223957fe5b14612251576122076009600189600381111561220257fe5b61225b848c6139e7565b9097509250600087600381111561226e57fe5b14612286576122076009600489600381111561220257fe5b6122a16040518060200160405280600c54815250858c613a0d565b909750915060008760038111156122b457fe5b146122cc576122076009600589600381111561220257fe5b6122d7858a8b613a0d565b909750905060008760038111156122ea57fe5b14612302576122076009600389600381111561220257fe5b600d8e9055600e819055600f8390556010829055604080518d8152602081018690528082018390526060810185905290517f4dec04e750ca11537cabcd8a9eab06494de08da3735bc8871cd41250e190bc049181900360800190a160009e50505050505050505050505050505090565b60008054600160a01b900460ff166123be576040805162461bcd60e51b815260206004820152600a6024820152691c994b595b9d195c995960b21b604482015290519081900360640190fd5b6000805460ff60a01b191681556123d733338686613023565b1490506000805460ff60a01b1916600160a01b17905592915050565b6004546000906001600160a01b0316331461243e576040805162461bcd60e51b815260206004820152600660248201526510b0b236b4b760d11b604482015290519081900360640190fd5b50600580546001600160a01b0383166001600160a01b03199091161790556000919050565b600e5481565b6000612476833484613a69565b5090506124b181604051806040016040528060168152602001751b1a5c5d5a59185d19509bdc9c9bddc819985a5b195960521b815250610f8d565b505050565b600a546000906001600160a01b031663b81688166124d2613386565b600f54601054600c546040518563ffffffff1660e01b81526004018085815260200184815260200183815260200182815260200194505050505060206040518083038186803b15801561252457600080fd5b505afa158015612538573d6000803e3d6000fd5b505050506040513d602081101561254e57600080fd5b5051905090565b60008054600160a01b900460ff166125a1576040805162461bcd60e51b815260206004820152600a6024820152691c994b595b9d195c995960b21b604482015290519081900360640190fd5b6000805460ff60a01b191690556125ba33858585613bab565b90506000805460ff60a01b1916600160a01b1790559392505050565b6004546000906001600160a01b031633146125f7576115a360016045612aae565b600880546001600160a01b038481166001600160a01b0319831681179093556040805191909216808252602082019390935281517fca4f2f25d0898edd99413412fb94012f9e54ec8142f9b093e7720646a95b16a9929181900390910190a160006116cb565b60008054600160a01b900460ff166126a9576040805162461bcd60e51b815260206004820152600a6024820152691c994b595b9d195c995960b21b604482015290519081900360640190fd5b6000805460ff60a01b191681556126be61201a565b14612709576040805162461bcd60e51b81526020600482015260166024820152751858d8dc9d59481a5b9d195c995cdd0819985a5b195960521b604482015290519081900360640190fd5b6127116113a1565b90506000805460ff60a01b1916600160a01b17905590565b6001600160a01b038116600090815260126020526040812054819081908190818080612754896136ce565b93509050600081600381111561276657fe5b146127845760095b9750600096508695508594506127b79350505050565b61278c612f74565b92509050600081600381111561279e57fe5b146127aa57600961276e565b5060009650919450925090505b9193509193565b600061128182613e11565b6005546001600160a01b031681565b600061128182613f7a565b6001600160a01b03918216600090815260136020908152604080832093909416825291909152205490565b600061281a8234613ffe565b509050611189816040518060400160405280601881526020017f7265706179426f72726f77426568616c66206661696c65640000000000000000815250610f8d565b60075481565b6008546000906001600160a01b03163314158061287d575033155b156128955761288e60016000612aae565b9050611401565b60048054600880546001600160a01b038082166001600160a01b031980861682179687905590921690925560408051938316808552949092166020840152815190927ff9ffabca9c8276e99321725bcb43fb076a6c66a54b7f21c4e8146d8519b417dc92908290030190a1600854604080516001600160a01b038085168252909216602083015280517fca4f2f25d0898edd99413412fb94012f9e54ec8142f9b093e7720646a95b16a99281900390910190a160009250505090565b60008061295c61201a565b905080156129825761297a81601181111561297357fe5b6040612aae565b915050611551565b6116cb83613786565b600a546001600160a01b031681565b6004546001600160a01b031681565b600a546000906001600160a01b03166315f240536129c5613386565b600f546010546040518463ffffffff1660e01b815260040180848152602001838152602001828152602001935050505060206040518083038186803b15801561252457600080fd5b60035461010090046001600160a01b031681565b60008054600160a01b900460ff16612a6d576040805162461bcd60e51b815260206004820152600a6024820152691c994b595b9d195c995960b21b604482015290519081900360640190fd5b6000805460ff60a01b19168155612a8261201a565b90508015612aa057611b92816011811115612a9957fe5b6046612aae565b611ba3836140b9565b600181565b60007f45b96fe442630264581b197e84bbada861235052c5a1aadfff9ea4e40a969aa0836011811115612add57fe5b836050811115612ae957fe5b604080519283526020830191909152600082820152519081900360600190a18260118111156116cb57fe5b60095460408051634ef4c3e160e01b81523060048201526001600160a01b03858116602483015260448201859052915160009384938493911691634ef4c3e19160648082019260209290919082900301818787803b158015612b7557600080fd5b505af1158015612b89573d6000803e3d6000fd5b505050506040513d6020811015612b9f57600080fd5b505190508015612bc357612bb66003601f83613981565b925060009150612f6d9050565b612bcb613782565b600d5414612bdf57612bb6600a6022612aae565b612be76157e1565b612bef612f74565b6040830181905260208301826003811115612c0657fe5b6003811115612c1157fe5b9052506000905081602001516003811115612c2857fe5b14612c5257612c44600960218360200151600381111561220257fe5b935060009250612f6d915050565b612c5c868661415c565b60c0820181905260408051602081018252908301518152612c7d91906141f8565b6060830181905260208301826003811115612c9457fe5b6003811115612c9f57fe5b9052506000905081602001516003811115612cb657fe5b14612d08576040805162461bcd60e51b815260206004820181905260248201527f4d494e545f45584348414e47455f43414c43554c4154494f4e5f4641494c4544604482015290519081900360640190fd5b612d1860115482606001516139e7565b6080830181905260208301826003811115612d2f57fe5b6003811115612d3a57fe5b9052506000905081602001516003811115612d5157fe5b14612d8d5760405162461bcd60e51b8152600401808060200182810382526028815260200180615b446028913960400191505060405180910390fd5b6001600160a01b0386166000908152601260205260409020546060820151612db591906139e7565b60a0830181905260208301826003811115612dcc57fe5b6003811115612dd757fe5b9052506000905081602001516003811115612dee57fe5b14612e2a5760405162461bcd60e51b815260040180806020018281038252602b8152602001806159bd602b913960400191505060405180910390fd5b608081015160115560a08101516001600160a01b0387166000818152601260209081526040918290209390935560c084015160608086015183519485529484019190915282820193909352517f4c209b5fc8ad50758f13e2e1088ba56a560dff690a1c6fef26394f4c03821c4f929181900390910190a1606081015160408051918252516001600160a01b038816913091600080516020615a8b8339815191529181900360200190a360095460c08201516060830151604080516341c728b960e01b81523060048201526001600160a01b038b81166024830152604482019490945260648101929092525191909216916341c728b991608480830192600092919082900301818387803b158015612f4057600080fd5b505af1158015612f54573d6000803e3d6000fd5b5060009250612f61915050565b8160c001519350935050505b9250929050565b601154600090819080612f8f575050600b546000915061301f565b6000612f99613386565b90506000612fa5615750565b6000612fb684600f5460105461420f565b935090506000816003811115612fc857fe5b14612fdd5795506000945061301f9350505050565b612fe7838661424d565b925090506000816003811115612ff957fe5b1461300e5795506000945061301f9350505050565b505160009550935061301f92505050565b9091565b600954604080516317b9b84b60e31b81523060048201526001600160a01b03868116602483015285811660448301526064820185905291516000938493169163bdcdc25891608480830192602092919082900301818787803b15801561308857600080fd5b505af115801561309c573d6000803e3d6000fd5b505050506040513d60208110156130b257600080fd5b5051905080156130d1576130c96003604a83613981565b91505061332b565b836001600160a01b0316856001600160a01b031614156130f7576130c96002604b612aae565b60006001600160a01b038781169087161415613116575060001961313e565b506001600160a01b038086166000908152601360209081526040808320938a16835292905220545b60008060008061314e85896138f6565b9094509250600084600381111561316157fe5b1461317f576131726009604b612aae565b965050505050505061332b565b6001600160a01b038a166000908152601260205260409020546131a290896138f6565b909450915060008460038111156131b557fe5b146131c6576131726009604c612aae565b6001600160a01b0389166000908152601260205260409020546131e990896139e7565b909450905060008460038111156131fc57fe5b1461320d576131726009604d612aae565b6001600160a01b03808b16600090815260126020526040808220859055918b168152208190556000198514613265576001600160a01b03808b166000908152601360209081526040808320938f168352929052208390555b886001600160a01b03168a6001600160a01b0316600080516020615a8b8339815191528a6040518082815260200191505060405180910390a36009546040805163352b4a3f60e11b81523060048201526001600160a01b038d811660248301528c81166044830152606482018c905291519190921691636a56947e91608480830192600092919082900301818387803b15801561330157600080fd5b505af1158015613315573d6000803e3d6000fd5b5060009250613322915050565b96505050505050505b949350505050565b6000806000613340615750565b61334a8686613919565b9092509050600082600381111561335d57fe5b1461336e5750915060009050612f6d565b6000613379826142fd565b9350935050509250929050565b600080806133953031346138f6565b909250905060008260038111156133a857fe5b146113fd57600080fd5b600080548190600160a01b900460ff16613400576040805162461bcd60e51b815260206004820152600a6024820152691c994b595b9d195c995960b21b604482015290519081900360640190fd5b6000805460ff60a01b1916815561341561201a565b9050801561343357610f5681601181111561342c57fe5b6036612aae565b610f6d33338661430c565b60006116cb83836040518060400160405280601781526020017f6d756c7469706c69636174696f6e206f766572666c6f770000000000000000008152506146f1565b60006116cb83836040518060400160405280600e81526020016d646976696465206279207a65726f60901b815250614770565b6040516001600160a01b0383169082156108fc029083906000818181858888f193505050501580156124b1573d6000803e3d6000fd5b60006116cb8383604051806040016040528060118152602001706164646974696f6e206f766572666c6f7760781b8152506147d2565b60045460009081906001600160a01b031633146135425761297a60016031612aae565b61354a613782565b600d541461355e5761297a600a6033612aae565b82613567613386565b10156135795761297a600e6032612aae565b60105483111561358f5761297a60026034612aae565b50601054828103908111156135d55760405162461bcd60e51b8152600401808060200182810382526024815260200180615ba06024913960400191505060405180910390fd5b60108190556005546135f0906001600160a01b0316846134b3565b600454604080516001600160a01b03909216825260208201859052818101839052517f3bad0c59cf2f06e7314077049f48a93578cd16f5ef92329f1dab1420a99c177e9181900360600190a160006116cb565b60008054600160a01b900460ff1661368f576040805162461bcd60e51b815260206004820152600a6024820152691c994b595b9d195c995960b21b604482015290519081900360640190fd5b6000805460ff60a01b191681556136a461201a565b905080156136c257611b928160118111156136bb57fe5b6027612aae565b611ba333600085614827565b6001600160a01b03811660009081526014602052604081208054829182918291829161370557506000945084935061377d92505050565b6137158160000154600e54614d35565b9094509250600084600381111561372857fe5b1461373d57509193506000925061377d915050565b61374b838260010154614d74565b9094509150600084600381111561375e57fe5b1461377357509193506000925061377d915050565b5060009450925050505b915091565b4390565b60045460009081906001600160a01b031633146137a95761297a60016042612aae565b6137b1613782565b600d54146137c55761297a600a6041612aae565b600a60009054906101000a90046001600160a01b03169050826001600160a01b0316632191f92a6040518163ffffffff1660e01b815260040160206040518083038186803b15801561381657600080fd5b505afa15801561382a573d6000803e3d6000fd5b505050506040513d602081101561384057600080fd5b5051613893576040805162461bcd60e51b815260206004820152601c60248201527f6d61726b6572206d6574686f642072657475726e65642066616c736500000000604482015290519081900360640190fd5b600a80546001600160a01b0319166001600160a01b03858116918217909255604080519284168352602083019190915280517fedffc32e068c7c95dfd4bdfd5c4d939a084d6b11c4199eac8436ed234d72f9269281900390910190a160006116cb565b60008083831161390d575060009050818303612f6d565b50600390506000612f6d565b6000613923615750565b600080613934866000015186614d35565b9092509050600082600381111561394757fe5b1461396657506040805160208101909152600081529092509050612f6d565b60408051602081019091529081526000969095509350505050565b60007f45b96fe442630264581b197e84bbada861235052c5a1aadfff9ea4e40a969aa08460118111156139b057fe5b8460508111156139bc57fe5b604080519283526020830191909152818101859052519081900360600190a183601181111561332b57fe5b6000808383018481106139ff57600092509050612f6d565b506002915060009050612f6d565b6000806000613a1a615750565b613a248787613919565b90925090506000826003811115613a3757fe5b14613a485750915060009050613a61565b613a5a613a54826142fd565b866139e7565b9350935050505b935093915050565b600080548190600160a01b900460ff16613ab7576040805162461bcd60e51b815260206004820152600a6024820152691c994b595b9d195c995960b21b604482015290519081900360640190fd5b6000805460ff60a01b19168155613acc61201a565b90508015613af757613aea816011811115613ae357fe5b600f612aae565b925060009150613b8e9050565b836001600160a01b031663a6afed956040518163ffffffff1660e01b8152600401602060405180830381600087803b158015613b3257600080fd5b505af1158015613b46573d6000803e3d6000fd5b505050506040513d6020811015613b5c57600080fd5b505190508015613b7c57613aea816011811115613b7557fe5b6010612aae565b613b8833878787614d9f565b92509250505b6000805460ff60a01b1916600160a01b1790559094909350915050565b6009546040805163d02f735160e01b81523060048201526001600160a01b038781166024830152868116604483015285811660648301526084820185905291516000938493169163d02f73519160a480830192602092919082900301818787803b158015613c1857600080fd5b505af1158015613c2c573d6000803e3d6000fd5b505050506040513d6020811015613c4257600080fd5b505190508015613c59576130c96003601b83613981565b846001600160a01b0316846001600160a01b03161415613c7f576130c96006601c612aae565b6001600160a01b03841660009081526012602052604081205481908190613ca690876138f6565b90935091506000836003811115613cb957fe5b14613cdc57613cd16009601a85600381111561220257fe5b94505050505061332b565b6001600160a01b038816600090815260126020526040902054613cff90876139e7565b90935090506000836003811115613d1257fe5b14613d2a57613cd16009601985600381111561220257fe5b6001600160a01b038088166000818152601260209081526040808320879055938c168083529184902085905583518a815293519193600080516020615a8b833981519152929081900390910190a360095460408051636d35bf9160e01b81523060048201526001600160a01b038c811660248301528b811660448301528a81166064830152608482018a905291519190921691636d35bf919160a480830192600092919082900301818387803b158015613de357600080fd5b505af1158015613df7573d6000803e3d6000fd5b5060009250613e04915050565b9998505050505050505050565b60008054600160a01b900460ff16613e5d576040805162461bcd60e51b815260206004820152600a6024820152691c994b595b9d195c995960b21b604482015290519081900360640190fd5b6000805460ff60a01b1916905560035461010090046001600160a01b031615613f485760035460408051630a47f38360e31b8152306004820152336024820152905160009261010090046001600160a01b03169163523f9c18916044808301926020929190829003018186803b158015613ed657600080fd5b505afa158015613eea573d6000803e3d6000fd5b505050506040513d6020811015613f0057600080fd5b505190508015613f46576040805162461bcd60e51b815260206004820152600c60248201526b1c9a5cdac818dbdb9d1c9bdb60a21b604482015290519081900360640190fd5b505b6000613f5261201a565b90508015613f7057611b92816011811115613f6957fe5b6008612aae565b611ba33384615322565b60008054600160a01b900460ff16613fc6576040805162461bcd60e51b815260206004820152600a6024820152691c994b595b9d195c995960b21b604482015290519081900360640190fd5b6000805460ff60a01b19168155613fdb61201a565b90508015613ff257611b928160118111156136bb57fe5b611ba333846000614827565b600080548190600160a01b900460ff1661404c576040805162461bcd60e51b815260206004820152600a6024820152691c994b595b9d195c995960b21b604482015290519081900360640190fd5b6000805460ff60a01b1916815561406161201a565b9050801561408c5761407f81601181111561407857fe5b6035612aae565b92506000915061409d9050565b61409733868661430c565b92509250505b6000805460ff60a01b1916600160a01b17905590939092509050565b6004546000906001600160a01b031633146140da576115a360016047612aae565b6140e2613782565b600d54146140f6576115a3600a6048612aae565b670de0b6b3a7640000821115614112576115a360026049612aae565b600c805490839055604080518281526020810185905281517faaa68312e2ea9d50e16af5068410ab56e1a1fd06037b1a35664812c30f821460929181900390910190a160006116cb565b6000336001600160a01b038416146141ad576040805162461bcd60e51b815260206004820152600f60248201526e0e6cadcc8cae440dad2e6dac2e8c6d608b1b604482015290519081900360640190fd5b8134146141f2576040805162461bcd60e51b815260206004820152600e60248201526d0ecc2d8eaca40dad2e6dac2e8c6d60931b604482015290519081900360640190fd5b50919050565b6000806000614205615750565b61334a8686615662565b60008060008061421f87876139e7565b9092509050600082600381111561423257fe5b146142435750915060009050613a61565b613a5a81866138f6565b6000614257615750565b60008061426c86670de0b6b3a7640000614d35565b9092509050600082600381111561427f57fe5b1461429e57506040805160208101909152600081529092509050612f6d565b6000806142ab8388614d74565b909250905060008260038111156142be57fe5b146142e057506040805160208101909152600081529094509250612f6d915050565b604080516020810190915290815260009890975095505050505050565b51670de0b6b3a7640000900490565b60095460408051631200453160e11b81523060048201526001600160a01b0386811660248301528581166044830152606482018590529151600093849384939116916324008a629160848082019260209290919082900301818787803b15801561437557600080fd5b505af1158015614389573d6000803e3d6000fd5b505050506040513d602081101561439f57600080fd5b5051905080156143c3576143b66003603883613981565b925060009150613a619050565b6143cb613782565b600d54146143df576143b6600a6039612aae565b6143e761581f565b6001600160a01b0386166000908152601460205260409020600101546060820152614411866136ce565b608083018190526020830182600381111561442857fe5b600381111561443357fe5b905250600090508160200151600381111561444a57fe5b1461447457614466600960378360200151600381111561220257fe5b935060009250613a61915050565b60001985141561448d5760808101516040820152614495565b604081018590525b6144a387826040015161415c565b60e0820181905260808201516144b8916138f6565b60a08301819052602083018260038111156144cf57fe5b60038111156144da57fe5b90525060009050816020015160038111156144f157fe5b1461452d5760405162461bcd60e51b815260040180806020018281038252603a815260200180615a1f603a913960400191505060405180910390fd5b61453d600f548260e001516138f6565b60c083018190526020830182600381111561455457fe5b600381111561455f57fe5b905250600090508160200151600381111561457657fe5b146145b25760405162461bcd60e51b8152600401808060200182810382526031815260200180615aab6031913960400191505060405180910390fd5b60a080820180516001600160a01b03808a16600081815260146020908152604091829020948555600e5460019095019490945560c0870151600f81905560e088015195518251948f16855294840192909252828101949094526060820192909252608081019190915290517f1a2a22cb034d26d1854bdc6666a5b91fe25efbbb5dcad3b0355478d6f5c362a1929181900390910190a160095460e0820151606083015160408051631ededc9160e01b81523060048201526001600160a01b038c811660248301528b8116604483015260648201949094526084810192909252519190921691631ededc919160a480830192600092919082900301818387803b1580156146bd57600080fd5b505af11580156146d1573d6000803e3d6000fd5b50600092506146de915050565b8160e00151935093505050935093915050565b60008315806146fe575082155b1561470b575060006116cb565b8383028385828161471857fe5b041483906147675760405162461bcd60e51b815260206004820181815283516024840152835190928392604490910191908501908083836000831561114a578181015183820152602001611132565b50949350505050565b600081836147bf5760405162461bcd60e51b815260206004820181815283516024840152835190928392604490910191908501908083836000831561114a578181015183820152602001611132565b508284816147c957fe5b04949350505050565b600083830182858210156147675760405162461bcd60e51b815260206004820181815283516024840152835190928392604490910191908501908083836000831561114a578181015183820152602001611132565b6000821580614834575081155b61486f5760405162461bcd60e51b8152600401808060200182810382526034815260200180615b6c6034913960400191505060405180910390fd5b6148776157e1565b61487f612f74565b604083018190526020830182600381111561489657fe5b60038111156148a157fe5b90525060009050816020015160038111156148b857fe5b146148dc576148d46009602b8360200151600381111561220257fe5b9150506116cb565b831561495d5760608101849052604080516020810182529082015181526149039085613333565b608083018190526020830182600381111561491a57fe5b600381111561492557fe5b905250600090508160200151600381111561493c57fe5b14614958576148d4600960298360200151600381111561220257fe5b6149d6565b61497983604051806020016040528084604001518152506141f8565b606083018190526020830182600381111561499057fe5b600381111561499b57fe5b90525060009050816020015160038111156149b257fe5b146149ce576148d46009602a8360200151600381111561220257fe5b608081018390525b60095460608201516040805163eabe7d9160e01b81523060048201526001600160a01b03898116602483015260448201939093529051600093929092169163eabe7d919160648082019260209290919082900301818787803b158015614a3b57600080fd5b505af1158015614a4f573d6000803e3d6000fd5b505050506040513d6020811015614a6557600080fd5b505190508015614a8557614a7c6003602883613981565b925050506116cb565b614a8d613782565b600d5414614aa157614a7c600a602c612aae565b614ab160115483606001516138f6565b60a0840181905260208401826003811115614ac857fe5b6003811115614ad357fe5b9052506000905082602001516003811115614aea57fe5b14614b0657614a7c6009602e8460200151600381111561220257fe5b6001600160a01b0386166000908152601260205260409020546060830151614b2e91906138f6565b60c0840181905260208401826003811115614b4557fe5b6003811115614b5057fe5b9052506000905082602001516003811115614b6757fe5b14614b8357614a7c6009602d8460200151600381111561220257fe5b8160800151614b90613386565b1015614ba257614a7c600e602f612aae565b6000826080015190506000614bca614bbc8360065461343e565b670de0b6b3a7640000613480565b9050614bd8601054826134e9565b601055614be582826156c1565b9150614bf58885608001516134b3565b60a084015160115560c08401516001600160a01b038916600081815260126020908152604091829020939093556060870151815190815290513093600080516020615a8b833981519152928290030190a36080840151606080860151604080516001600160a01b038d168152602081019490945283810191909152517fe5b754fb1abb7f01b499791d0b820ae3b6af3424ac1c59768edb53f4ec31a9299281900390910190a160095460808501516060860151604080516351dff98960e01b81523060048201526001600160a01b038d81166024830152604482019490945260648101929092525191909216916351dff98991608480830192600092919082900301818387803b158015614d0857600080fd5b505af1158015614d1c573d6000803e3d6000fd5b5060009250614d29915050565b98975050505050505050565b60008083614d4857506000905080612f6d565b83830283858281614d5557fe5b0414614d6957506002915060009050612f6d565b600092509050612f6d565b60008082614d885750600190506000612f6d565b6000838581614d9357fe5b04915091509250929050565b60095460408051632fe3f38f60e11b81523060048201526001600160a01b0384811660248301528781166044830152868116606483015260848201869052915160009384938493911691635fc7e71e9160a48082019260209290919082900301818787803b158015614e1057600080fd5b505af1158015614e24573d6000803e3d6000fd5b505050506040513d6020811015614e3a57600080fd5b505190508015614e5e57614e516003601283613981565b9250600091506153199050565b614e66613782565b600d5414614e7a57614e51600a6016612aae565b614e82613782565b846001600160a01b0316636c540baf6040518163ffffffff1660e01b815260040160206040518083038186803b158015614ebb57600080fd5b505afa158015614ecf573d6000803e3d6000fd5b505050506040513d6020811015614ee557600080fd5b505114614ef857614e51600a6011612aae565b866001600160a01b0316866001600160a01b03161415614f1e57614e5160066017612aae565b84614f2f57614e5160076015612aae565b600019851415614f4557614e5160076014612aae565b600080614f5389898961430c565b90925090508115614f8357614f74826011811115614f6d57fe5b6018612aae565b94506000935061531992505050565b6009546040805163c488847b60e01b81523060048201526001600160a01b038981166024830152604482018590528251600094859492169263c488847b926064808301939192829003018186803b158015614fdd57600080fd5b505afa158015614ff1573d6000803e3d6000fd5b505050506040513d604081101561500757600080fd5b508051602090910151909250905081156150525760405162461bcd60e51b8152600401808060200182810382526033815260200180615adc6033913960400191505060405180910390fd5b80886001600160a01b03166370a082318c6040518263ffffffff1660e01b815260040180826001600160a01b03166001600160a01b0316815260200191505060206040518083038186803b1580156150a957600080fd5b505afa1580156150bd573d6000803e3d6000fd5b505050506040513d60208110156150d357600080fd5b50511015615128576040805162461bcd60e51b815260206004820152601860248201527f4c49515549444154455f5345495a455f544f4f5f4d5543480000000000000000604482015290519081900360640190fd5b60006001600160a01b03891630141561514e57615147308d8d85613bab565b90506151d8565b6040805163b2a02ff160e01b81526001600160a01b038e811660048301528d81166024830152604482018590529151918b169163b2a02ff1916064808201926020929091908290030181600087803b1580156151a957600080fd5b505af11580156151bd573d6000803e3d6000fd5b505050506040513d60208110156151d357600080fd5b505190505b8015615222576040805162461bcd60e51b81526020600482015260146024820152731d1bdad95b881cd95a5e9d5c994819985a5b195960621b604482015290519081900360640190fd5b604080516001600160a01b03808f168252808e1660208301528183018790528b1660608201526080810184905290517f298637f684da70674f26509b10f07ec2fbc77a335ab1e7d6215a4b2484d8bb529181900360a00190a1600954604080516347ef3b3b60e01b81523060048201526001600160a01b038c811660248301528f811660448301528e811660648301526084820188905260a48201869052915191909216916347ef3b3b9160c480830192600092919082900301818387803b1580156152ed57600080fd5b505af1158015615301573d6000803e3d6000fd5b506000925061530e915050565b975092955050505050505b94509492505050565b6009546040805163368f515360e21b81523060048201526001600160a01b0385811660248301526044820185905291516000938493169163da3d454c91606480830192602092919082900301818787803b15801561537f57600080fd5b505af1158015615393573d6000803e3d6000fd5b505050506040513d60208110156153a957600080fd5b5051905080156153c8576153c06003600e83613981565b915050611281565b6153d0613782565b600d54146153e3576153c0600a80612aae565b826153ec613386565b10156153fe576153c0600e6009612aae565b615406615865565b61540f856136ce565b602083018190528282600381111561542357fe5b600381111561542e57fe5b905250600090508151600381111561544257fe5b146154675761545e600960078360000151600381111561220257fe5b92505050611281565b6154758160200151856139e7565b604083018190528282600381111561548957fe5b600381111561549457fe5b90525060009050815160038111156154a857fe5b146154c45761545e6009600c8360000151600381111561220257fe5b6154d0600f54856139e7565b60608301819052828260038111156154e457fe5b60038111156154ef57fe5b905250600090508151600381111561550357fe5b1461551f5761545e6009600b8360000151600381111561220257fe5b6000615530614bbc8660075461343e565b905061553e601054826134e9565b601055600061554d86836156c1565b905061555987826134b3565b604080840180516001600160a01b038a1660008181526014602090815290859020928355600e54600190930192909255606080880151600f819055935185519283529282018b9052818501929092529081019190915290517f13ed6866d4e1ee6da46f845c46d7e54120883d75c5ea9a2dacc1c4ca8984ab809181900360800190a160095460408051635c77860560e01b81523060048201526001600160a01b038a81166024830152604482018a905291519190921691635c77860591606480830192600092919082900301818387803b15801561563657600080fd5b505af115801561564a573d6000803e3d6000fd5b5060009250615657915050565b979650505050505050565b600061566c615750565b600080615681670de0b6b3a764000087614d35565b9092509050600082600381111561569457fe5b146156b357506040805160208101909152600081529092509050612f6d565b61337981866000015161424d565b60006116cb8383604051806040016040528060158152602001747375627472616374696f6e20756e646572666c6f7760581b815250600081848411156157485760405162461bcd60e51b815260206004820181815283516024840152835190928392604490910191908501908083836000831561114a578181015183820152602001611132565b505050900390565b6040518060200160405280600081525090565b828054600181600116156101000203166002900490600052602060002090601f016020900481019282601f106157a457805160ff19168380011785556157d1565b828001600101855582156157d1579182015b828111156157d15782518255916020019190600101906157b6565b506157dd92915061588e565b5090565b6040805160e0810190915280600081526020016000815260200160008152602001600081526020016000815260200160008152602001600081525090565b6040805161010081019091528060008152602001600081526020016000815260200160008152602001600081526020016000815260200160008152602001600081525090565b604080516080810190915280600081526020016000815260200160008152602001600081525090565b61140191905b808211156157dd5760008155600101615894565b73eeeeeeeeeeeeeeeeeeeeeeeeeeeeeeeeeeeeeeee9056fe6f6e6c792061646d696e206d617920696e697469616c697a6520746865206d61726b65745468657265206973206e6f7420656e6f756768206c697175696469747920617661696c61626c6520746f20626f72726f776d61726b6574206d6179206f6e6c7920626520696e697469616c697a6564206f6e6365696e697469616c2065786368616e67652072617465206d7573742062652067726561746572207468616e207a65726f2e73657474696e6720696e7465726573742072617465206d6f64656c206661696c65645468652061637475616c2062616c616e6365206f66207468652070726f746f636f6c20697320696e636f6e73697374656e744d494e545f4e45575f4143434f554e545f42414c414e43455f43414c43554c4154494f4e5f4641494c4544626f72726f7742616c616e636553746f7265643a20626f72726f7742616c616e636553746f726564496e7465726e616c206661696c656452455041595f424f52524f575f4e45575f4143434f554e545f424f52524f575f42414c414e43455f43414c43554c4154494f4e5f4641494c45445468652072657175657374656420616d6f756e7420697320746f6f20736d616c6c20666f72206120666c6173684c6f616e2eddf252ad1be2c89b69c2b068fc378daa952ba7f163c4a11628f55a4df523b3ef52455041595f424f52524f575f4e45575f544f54414c5f42414c414e43455f43414c43554c4154494f4e5f4641494c45444c49515549444154455f434f4d5054524f4c4c45525f43414c43554c4154455f414d4f554e545f5345495a455f4641494c454465786368616e67655261746553746f7265643a2065786368616e67655261746553746f726564496e7465726e616c206661696c65644d494e545f4e45575f544f54414c5f535550504c595f43414c43554c4154494f4e5f4641494c45446f6e65206f662072656465656d546f6b656e73496e206f722072656465656d416d6f756e74496e206d757374206265207a65726f72656475636520726573657276657320756e657870656374656420756e646572666c6f77a265627a7a723058209a321f9459d211d4a81f915cf413f154e3a862dca7e433eef9fc37c632fe6aa764736f6c634300050900326f6e6c792061646d696e206d617920696e697469616c697a6520746865206d61726b65746d61726b6574206d6179206f6e6c7920626520696e697469616c697a6564206f6e6365696e697469616c2065786368616e67652072617465206d7573742062652067726561746572207468616e207a65726f2e73657474696e6720696e7465726573742072617465206d6f64656c206661696c6564",
  "source": "pragma solidity ^0.5.9;\n\nimport \"./CToken.sol\";\nimport \"./lib/NativeAddressLib.sol\";\n\n/**\n * @title Compound's CNative Contract\n * @notice CToken which wraps Ether\n * @author Compound\n */\ncontract CNative is CToken {\n    /**\n     * @notice Construct a new CNative money market\n     * @param comptroller_ The address of the Comptroller\n     * @param interestRateModel_ The address of the interest rate model\n     * @param initialExchangeRateMantissa_ The initial exchange rate, scaled by 1e18\n     * @param name_ ERC-20 name of this token\n     * @param symbol_ ERC-20 symbol of this token\n     * @param decimals_ ERC-20 decimal precision of this token\n     * @param admin_ Address of the administrator of this token\n     */\n    constructor(ComptrollerInterface comptroller_,\n        InterestRateModel interestRateModel_,\n        uint initialExchangeRateMantissa_,\n        string memory name_,\n        string memory symbol_,\n        uint8 decimals_,\n        address payable admin_) public {\n        // Creator of the contract is admin during initialization\n        admin = msg.sender;\n\n        initialize(comptroller_, interestRateModel_, initialExchangeRateMantissa_, name_, symbol_, decimals_);\n\n        // Set the proper admin now that initialization is done\n        admin = admin_;\n        underlying = NativeAddressLib.nativeAddress();\n\n    }\n\n\n    /*** User Interface ***/\n\n    /**\n     * @notice Sender supplies assets into the market and receives cTokens in exchange\n     * @dev Reverts upon any failure\n     */\n    function mint() external payable {\n        (uint err,) = mintInternal(msg.value);\n        requireNoError(err, \"mint failed\");\n    }\n\n    /**\n     * @notice Sender redeems cTokens in exchange for the underlying asset\n     * @dev Accrues interest whether or not the operation succeeds, unless reverted\n     * @param redeemTokens The number of cTokens to redeem into underlying\n     * @return uint 0=success, otherwise a failure (see ErrorReporter.sol for details)\n     */\n    function redeem(uint redeemTokens) external returns (uint) {\n        return redeemInternal(redeemTokens);\n    }\n\n    /**\n     * @notice Sender redeems cTokens in exchange for a specified amount of underlying asset\n     * @dev Accrues interest whether or not the operation succeeds, unless reverted\n     * @param redeemAmount The amount of underlying to redeem\n     * @return uint 0=success, otherwise a failure (see ErrorReporter.sol for details)\n     */\n    function redeemUnderlying(uint redeemAmount) external returns (uint) {\n        return redeemUnderlyingInternal(redeemAmount);\n    }\n\n    /**\n      * @notice Sender borrows assets from the protocol to their own address\n      * @param borrowAmount The amount of the underlying asset to borrow\n      * @return uint 0=success, otherwise a failure (see ErrorReporter.sol for details)\n      */\n    function borrow(uint borrowAmount) external returns (uint) {\n        return borrowInternal(borrowAmount);\n    }\n\n    /**\n     * @notice Sender repays their own borrow\n     * @dev Reverts upon any failure\n     */\n    function repayBorrow() external payable {\n        (uint err,) = repayBorrowInternal(msg.value);\n        requireNoError(err, \"repayBorrow failed\");\n    }\n\n    /**\n     * @notice Sender repays a borrow belonging to borrower\n     * @dev Reverts upon any failure\n     * @param borrower the account with the debt being payed off\n     */\n    function repayBorrowBehalf(address borrower) external payable {\n        (uint err,) = repayBorrowBehalfInternal(borrower, msg.value);\n        requireNoError(err, \"repayBorrowBehalf failed\");\n    }\n\n    /**\n     * @notice The sender liquidates the borrowers collateral.\n     *  The collateral seized is transferred to the liquidator.\n     * @dev Reverts upon any failure\n     * @param borrower The borrower of this cToken to be liquidated\n     * @param cTokenCollateral The market in which to seize collateral from the borrower\n     */\n    function liquidateBorrow(address borrower, CToken cTokenCollateral) external payable {\n        (uint err,) = liquidateBorrowInternal(borrower, msg.value, cTokenCollateral);\n        requireNoError(err, \"liquidateBorrow failed\");\n    }\n\n    /**\n     * @notice Send Ether to CNative to mint\n     */\n    function() external payable {\n        (uint err,) = mintInternal(msg.value);\n        requireNoError(err, \"mint failed\");\n    }\n\n    /*** Safe Token ***/\n\n    /**\n     * @notice Gets balance of this contract in terms of Ether, before this message\n     * @dev This excludes the value of the current message, if any\n     * @return The quantity of Ether owned by this contract\n     */\n    function getCashPrior() internal view returns (uint) {\n        (MathError err, uint startingBalance) = subUInt(address(this).balance, msg.value);\n        require(err == MathError.NO_ERROR);\n        return startingBalance;\n    }\n\n    /**\n     * @notice Perform the actual transfer in, which is a no-op\n     * @param from Address sending the Ether\n     * @param amount Amount of Ether being sent\n     * @return The actual amount of Ether transferred\n     */\n    function doTransferIn(address from, uint amount) internal returns (uint) {\n        // Sanity checks\n        require(msg.sender == from, \"sender mismatch\");\n        require(msg.value == amount, \"value mismatch\");\n        return amount;\n    }\n\n    function doTransferOut(address payable to, uint amount) internal {\n        /* Send the Ether, with minimal gas and revert on failure */\n        to.transfer(amount);\n    }\n\n    function requireNoError(uint errCode, string memory message) internal pure {\n        if (errCode == uint(Error.NO_ERROR)) {\n            return;\n        }\n\n        bytes memory fullMessage = new bytes(bytes(message).length + 5);\n        uint i;\n\n        for (i = 0; i < bytes(message).length; i++) {\n            fullMessage[i] = bytes(message)[i];\n        }\n\n        fullMessage[i + 0] = byte(uint8(32));\n        fullMessage[i + 1] = byte(uint8(40));\n        fullMessage[i + 2] = byte(uint8(48 + (errCode / 10)));\n        fullMessage[i + 3] = byte(uint8(48 + (errCode % 10)));\n        fullMessage[i + 4] = byte(uint8(41));\n\n        require(errCode == uint(Error.NO_ERROR), string(fullMessage));\n    }\n}\n",
  "sourcePath": "/Users/jjz/Documents/workspace/cryptocurrency/contract/foxdex/lending/contracts/CNative.sol",
  "compiler": {
    "name": "solc",
    "version": "0.5.9+commit.e560f70d.Emscripten.clang"
  },
  "schemaVersion": "3.3.3",
  "updatedAt": "2021-02-01T06:18:05.430Z",
  "networkType": "ethereum",
  "devdoc": {
    "author": "Compound",
    "methods": {
      "_acceptAdmin()": {
        "details": "Admin function for pending admin to accept role and update admin",
        "return": "uint 0=success, otherwise a failure (see ErrorReporter.sol for details)"
      },
      "_reduceReserves(uint256)": {
        "params": {
          "reduceAmount": "Amount of reduction to reserves"
        },
        "return": "uint 0=success, otherwise a failure (see ErrorReporter.sol for details)"
      },
      "_setComptroller(address)": {
        "details": "Admin function to set a new comptroller",
        "return": "uint 0=success, otherwise a failure (see ErrorReporter.sol for details)"
      },
      "_setInterestRateModel(address)": {
        "details": "Admin function to accrue interest and update the interest rate model",
        "params": {
          "newInterestRateModel": "the new interest rate model to use"
        },
        "return": "uint 0=success, otherwise a failure (see ErrorReporter.sol for details)"
      },
      "_setPendingAdmin(address)": {
        "details": "Admin function to begin change of admin.     The newPendingAdmin must call `_acceptAdmin` to finalize the transfer.",
        "params": {
          "newPendingAdmin": "New pending admin."
        },
        "return": "uint 0=success, otherwise a failure (see ErrorReporter.sol for details)"
      },
      "_setReserveFactor(uint256)": {
        "details": "Admin function to accrue interest and set a new reserve factor",
        "return": "uint 0=success, otherwise a failure (see ErrorReporter.sol for details)"
      },
      "accrueInterest()": {
        "details": "This calculates interest accrued from the last checkpointed block  up to the current block and writes new checkpoint to storage."
      },
      "allowance(address,address)": {
        "params": {
          "owner": "The address of the account which owns the tokens to be spent",
          "spender": "The address of the account which may transfer tokens"
        },
        "return": "The number of tokens allowed to be spent (-1 means infinite)"
      },
      "approve(address,uint256)": {
        "details": "This will overwrite the approval amount for `spender` and is subject to issues noted [here](https://eips.ethereum.org/EIPS/eip-20#approve)",
        "params": {
          "amount": "The number of tokens that are approved (-1 means infinite)",
          "spender": "The address of the account which may transfer tokens"
        },
        "return": "Whether or not the approval succeeded"
      },
      "balanceOf(address)": {
        "params": {
          "owner": "The address of the account to query"
        },
        "return": "The number of tokens owned by `owner`"
      },
      "balanceOfUnderlying(address)": {
        "details": "This also accrues interest in a transaction",
        "params": {
          "owner": "The address of the account to query"
        },
        "return": "The amount of underlying owned by `owner`"
      },
      "borrow(uint256)": {
        "params": {
          "borrowAmount": "The amount of the underlying asset to borrow"
        },
        "return": "uint 0=success, otherwise a failure (see ErrorReporter.sol for details)"
      },
      "borrowBalanceCurrent(address)": {
        "params": {
          "account": "The address whose balance should be calculated after updating borrowIndex"
        },
        "return": "The calculated balance"
      },
      "borrowBalanceStored(address)": {
        "params": {
          "account": "The address whose balance should be calculated"
        },
        "return": "The calculated balance"
      },
      "borrowRatePerBlock()": {
        "return": "The borrow interest rate per block, scaled by 1e18"
      },
      "constructor": {
        "params": {
          "admin_": "Address of the administrator of this token",
          "comptroller_": "The address of the Comptroller",
          "decimals_": "ERC-20 decimal precision of this token",
          "initialExchangeRateMantissa_": "The initial exchange rate, scaled by 1e18",
          "interestRateModel_": "The address of the interest rate model",
          "name_": "ERC-20 name of this token",
          "symbol_": "ERC-20 symbol of this token"
        }
      },
      "exchangeRateCurrent()": {
        "return": "Calculated exchange rate scaled by 1e18"
      },
      "exchangeRateStored()": {
        "details": "This function does not accrue interest before calculating the exchange rate",
        "return": "Calculated exchange rate scaled by 1e18"
      },
      "flashLoan(address,address,uint256,bytes)": {
        "details": "allows smartcontracts to access the liquidity of the pool within one transaction, as long as the amount taken plus a fee is returned. NOTE There are security concerns for developers of flashloan receiver contracts that must be kept into consideration. For further details please visit https://developers.aave.com",
        "params": {
          "_amount": "the amount requested for this flashloan*",
          "_receiver": "The address of the contract receiving the funds. The receiver should implement the IFlashLoanReceiver interface.",
          "_reserve": "the address of the principal reserve"
        }
      },
      "getAccountSnapshot(address)": {
        "details": "This is used by comptroller to more efficiently perform liquidity checks.",
        "params": {
          "account": "Address of the account to snapshot"
        },
        "return": "(possible error, token balance, borrow balance, exchange rate mantissa)"
      },
      "getCash()": {
        "return": "The quantity of underlying asset owned by this contract"
      },
      "initialize(address,address,uint256,string,string,uint8)": {
        "params": {
          "comptroller_": "The address of the Comptroller",
          "decimals_": "EIP-20 decimal precision of this token",
          "initialExchangeRateMantissa_": "The initial exchange rate, scaled by 1e18",
          "interestRateModel_": "The address of the interest rate model",
          "name_": "EIP-20 name of this token",
          "symbol_": "EIP-20 symbol of this token"
        }
      },
      "liquidateBorrow(address,address)": {
        "details": "Reverts upon any failure",
        "params": {
          "borrower": "The borrower of this cToken to be liquidated",
          "cTokenCollateral": "The market in which to seize collateral from the borrower"
        }
      },
      "mint()": {
        "details": "Reverts upon any failure"
      },
      "redeem(uint256)": {
        "details": "Accrues interest whether or not the operation succeeds, unless reverted",
        "params": {
          "redeemTokens": "The number of cTokens to redeem into underlying"
        },
        "return": "uint 0=success, otherwise a failure (see ErrorReporter.sol for details)"
      },
      "redeemUnderlying(uint256)": {
        "details": "Accrues interest whether or not the operation succeeds, unless reverted",
        "params": {
          "redeemAmount": "The amount of underlying to redeem"
        },
        "return": "uint 0=success, otherwise a failure (see ErrorReporter.sol for details)"
      },
      "repayBorrow()": {
        "details": "Reverts upon any failure"
      },
      "repayBorrowBehalf(address)": {
        "details": "Reverts upon any failure",
        "params": {
          "borrower": "the account with the debt being payed off"
        }
      },
      "seize(address,address,uint256)": {
        "details": "Will fail unless called by another cToken during the process of liquidation. Its absolutely critical to use msg.sender as the borrowed cToken and not a parameter.",
        "params": {
          "borrower": "The account having collateral seized",
          "liquidator": "The account receiving seized collateral",
          "seizeTokens": "The number of cTokens to seize"
        },
        "return": "uint 0=success, otherwise a failure (see ErrorReporter.sol for details)"
      },
      "supplyRatePerBlock()": {
        "return": "The supply interest rate per block, scaled by 1e18"
      },
      "totalBorrowsCurrent()": {
        "return": "The total borrows with interest"
      },
      "transfer(address,uint256)": {
        "params": {
          "amount": "The number of tokens to transfer",
          "dst": "The address of the destination account"
        },
        "return": "Whether or not the transfer succeeded"
      },
      "transferFrom(address,address,uint256)": {
        "params": {
          "amount": "The number of tokens to transfer",
          "dst": "The address of the destination account",
          "src": "The address of the source account"
        },
        "return": "Whether or not the transfer succeeded"
      }
    },
    "title": "Compound's CNative Contract"
  },
  "userdoc": {
    "methods": {
      "_acceptAdmin()": {
        "notice": "Accepts transfer of admin rights. msg.sender must be pendingAdmin"
      },
      "_reduceReserves(uint256)": {
        "notice": "Accrues interest and reduces reserves by transferring to admin"
      },
      "_setComptroller(address)": {
        "notice": "Sets a new comptroller for the market"
      },
      "_setInterestRateModel(address)": {
        "notice": "accrues interest and updates the interest rate model using _setInterestRateModelFresh"
      },
      "_setPendingAdmin(address)": {
        "notice": "Begins transfer of admin rights. The newPendingAdmin must call `_acceptAdmin` to finalize the transfer."
      },
      "_setReserveFactor(uint256)": {
        "notice": "accrues interest and sets a new reserve factor for the protocol using _setReserveFactorFresh"
      },
      "accrueInterest()": {
        "notice": "Applies accrued interest to total borrows and reserves"
      },
      "allowance(address,address)": {
        "notice": "Get the current allowance from `owner` for `spender`"
      },
      "approve(address,uint256)": {
        "notice": "Approve `spender` to transfer up to `amount` from `src`"
      },
      "balanceOf(address)": {
        "notice": "Get the token balance of the `owner`"
      },
      "balanceOfUnderlying(address)": {
        "notice": "Get the underlying balance of the `owner`"
      },
      "borrow(uint256)": {
        "notice": "Sender borrows assets from the protocol to their own address"
      },
      "borrowBalanceCurrent(address)": {
        "notice": "Accrue interest to updated borrowIndex and then calculate        account's borrow balance using the updated borrowIndex"
      },
      "borrowBalanceStored(address)": {
        "notice": "Return the borrow balance of account based on stored data"
      },
      "borrowRatePerBlock()": {
        "notice": "Returns the current per-block borrow interest rate for this cToken"
      },
      "constructor": "Construct a new CNative money market",
      "exchangeRateCurrent()": {
        "notice": "Accrue interest then return the up-to-date exchange rate"
      },
      "exchangeRateStored()": {
        "notice": "Calculates the exchange rate from the underlying to the CToken"
      },
      "getAccountSnapshot(address)": {
        "notice": "Get a snapshot of the account's balances, and the cached exchange rate"
      },
      "getCash()": {
        "notice": "Get cash balance of this cToken in the underlying asset"
      },
      "initialize(address,address,uint256,string,string,uint8)": {
        "notice": "Initialize the money market"
      },
      "liquidateBorrow(address,address)": {
        "notice": "The sender liquidates the borrowers collateral. The collateral seized is transferred to the liquidator."
      },
      "mint()": {
        "notice": "Sender supplies assets into the market and receives cTokens in exchange"
      },
      "redeem(uint256)": {
        "notice": "Sender redeems cTokens in exchange for the underlying asset"
      },
      "redeemUnderlying(uint256)": {
        "notice": "Sender redeems cTokens in exchange for a specified amount of underlying asset"
      },
      "repayBorrow()": {
        "notice": "Sender repays their own borrow"
      },
      "repayBorrowBehalf(address)": {
        "notice": "Sender repays a borrow belonging to borrower"
      },
      "seize(address,address,uint256)": {
        "notice": "Transfers collateral tokens (this market) to the liquidator."
      },
      "supplyRatePerBlock()": {
        "notice": "Returns the current per-block supply interest rate for this cToken"
      },
      "totalBorrowsCurrent()": {
        "notice": "Returns the current total borrows plus accrued interest"
      },
      "transfer(address,uint256)": {
        "notice": "Transfer `amount` tokens from `msg.sender` to `dst`"
      },
      "transferFrom(address,address,uint256)": {
        "notice": "Transfer `amount` tokens from `src` to `dst`"
      }
    },
    "notice": "CToken which wraps Ether"
  }
}